{
	"ProjectBlockchain.sol": {
		"DonationTracking": {
			"abi": [
				{
					"inputs": [],
					"stateMutability": "nonpayable",
					"type": "constructor"
				},
				{
					"anonymous": false,
					"inputs": [
						{
							"indexed": false,
							"internalType": "address",
							"name": "donor",
							"type": "address"
						},
						{
							"indexed": false,
							"internalType": "address",
							"name": "charityOrg",
							"type": "address"
						},
						{
							"indexed": false,
							"internalType": "uint256",
							"name": "amount",
							"type": "uint256"
						}
					],
					"name": "transferLog",
					"type": "event"
				},
				{
					"inputs": [
						{
							"internalType": "address payable",
							"name": "newCharityOrg",
							"type": "address"
						}
					],
					"name": "addCharityOrganization",
					"outputs": [],
					"stateMutability": "nonpayable",
					"type": "function"
				},
				{
					"inputs": [
						{
							"internalType": "uint256",
							"name": "",
							"type": "uint256"
						}
					],
					"name": "charity_org",
					"outputs": [
						{
							"internalType": "address payable",
							"name": "",
							"type": "address"
						}
					],
					"stateMutability": "view",
					"type": "function"
				},
				{
					"inputs": [],
					"name": "deposit",
					"outputs": [],
					"stateMutability": "payable",
					"type": "function"
				},
				{
					"inputs": [
						{
							"internalType": "uint256",
							"name": "",
							"type": "uint256"
						}
					],
					"name": "donors",
					"outputs": [
						{
							"internalType": "address",
							"name": "",
							"type": "address"
						}
					],
					"stateMutability": "view",
					"type": "function"
				},
				{
					"inputs": [],
					"name": "getAddress",
					"outputs": [
						{
							"internalType": "address",
							"name": "",
							"type": "address"
						}
					],
					"stateMutability": "view",
					"type": "function"
				},
				{
					"inputs": [],
					"name": "getBalance",
					"outputs": [
						{
							"internalType": "uint256",
							"name": "",
							"type": "uint256"
						}
					],
					"stateMutability": "view",
					"type": "function"
				},
				{
					"inputs": [],
					"name": "getOwnerBalance",
					"outputs": [
						{
							"internalType": "uint256",
							"name": "",
							"type": "uint256"
						}
					],
					"stateMutability": "view",
					"type": "function"
				},
				{
					"inputs": [],
					"name": "owner",
					"outputs": [
						{
							"internalType": "address",
							"name": "",
							"type": "address"
						}
					],
					"stateMutability": "view",
					"type": "function"
				},
				{
					"inputs": [],
					"name": "selectedOrgIndex",
					"outputs": [
						{
							"internalType": "uint256",
							"name": "",
							"type": "uint256"
						}
					],
					"stateMutability": "view",
					"type": "function"
				},
				{
					"inputs": [
						{
							"internalType": "address payable",
							"name": "recipientWallet",
							"type": "address"
						}
					],
					"name": "transferEth",
					"outputs": [],
					"stateMutability": "payable",
					"type": "function"
				},
				{
					"inputs": [
						{
							"internalType": "uint256",
							"name": "orgIndex",
							"type": "uint256"
						}
					],
					"name": "transferToCharity",
					"outputs": [],
					"stateMutability": "nonpayable",
					"type": "function"
				},
				{
					"inputs": [
						{
							"internalType": "address payable",
							"name": "_to",
							"type": "address"
						},
						{
							"internalType": "uint256",
							"name": "_amount",
							"type": "uint256"
						}
					],
					"name": "withdraw",
					"outputs": [],
					"stateMutability": "nonpayable",
					"type": "function"
				}
			],
			"devdoc": {
				"kind": "dev",
				"methods": {},
				"version": 1
			},
			"evm": {
				"assembly": "    /* \"ProjectBlockchain.sol\":66:2948  contract DonationTracking{... */\n  mstore(0x40, 0x80)\n    /* \"ProjectBlockchain.sol\":530:953  constructor() {... */\n  callvalue\n  dup1\n  iszero\n  tag_1\n  jumpi\n  0x00\n  dup1\n  revert\ntag_1:\n  pop\n    /* \"ProjectBlockchain.sol\":563:573  msg.sender */\n  caller\n    /* \"ProjectBlockchain.sol\":555:560  owner */\n  0x00\n  dup1\n    /* \"ProjectBlockchain.sol\":555:573  owner = msg.sender */\n  0x0100\n  exp\n  dup2\n  sload\n  dup2\n  0xffffffffffffffffffffffffffffffffffffffff\n  mul\n  not\n  and\n  swap1\n  dup4\n  0xffffffffffffffffffffffffffffffffffffffff\n  and\n  mul\n  or\n  swap1\n  sstore\n  pop\n    /* \"ProjectBlockchain.sol\":584:595  charity_org */\n  0x03\n    /* \"ProjectBlockchain.sol\":609:651  0x829c7599f5ccF77c050e0046356fA9F71053d4fD */\n  0x829c7599f5ccf77c050e0046356fa9f71053d4fd\n    /* \"ProjectBlockchain.sol\":584:653  charity_org.push(payable(0x829c7599f5ccF77c050e0046356fA9F71053d4fD)) */\n  swap1\n  dup1\n  0x01\n  dup2\n  sload\n  add\n  dup1\n  dup3\n  sstore\n  dup1\n  swap2\n  pop\n  pop\n  0x01\n  swap1\n  sub\n  swap1\n  0x00\n  mstore\n  keccak256(0x00, 0x20)\n  add\n  0x00\n  swap1\n  swap2\n  swap1\n  swap2\n  swap1\n  swap2\n  0x0100\n  exp\n  dup2\n  sload\n  dup2\n  0xffffffffffffffffffffffffffffffffffffffff\n  mul\n  not\n  and\n  swap1\n  dup4\n  0xffffffffffffffffffffffffffffffffffffffff\n  and\n  mul\n  or\n  swap1\n  sstore\n  pop\n    /* \"ProjectBlockchain.sol\":677:688  charity_org */\n  0x03\n    /* \"ProjectBlockchain.sol\":702:744  0x2A6e3989f198deBcdfb938b720817a1f2D987958 */\n  0x2a6e3989f198debcdfb938b720817a1f2d987958\n    /* \"ProjectBlockchain.sol\":677:746  charity_org.push(payable(0x2A6e3989f198deBcdfb938b720817a1f2D987958)) */\n  swap1\n  dup1\n  0x01\n  dup2\n  sload\n  add\n  dup1\n  dup3\n  sstore\n  dup1\n  swap2\n  pop\n  pop\n  0x01\n  swap1\n  sub\n  swap1\n  0x00\n  mstore\n  keccak256(0x00, 0x20)\n  add\n  0x00\n  swap1\n  swap2\n  swap1\n  swap2\n  swap1\n  swap2\n  0x0100\n  exp\n  dup2\n  sload\n  dup2\n  0xffffffffffffffffffffffffffffffffffffffff\n  mul\n  not\n  and\n  swap1\n  dup4\n  0xffffffffffffffffffffffffffffffffffffffff\n  and\n  mul\n  or\n  swap1\n  sstore\n  pop\n    /* \"ProjectBlockchain.sol\":770:781  charity_org */\n  0x03\n    /* \"ProjectBlockchain.sol\":795:837  0x03C75cD4B2Aa25B848814D6ABD44AA60B3FdAB46 */\n  0x03c75cd4b2aa25b848814d6abd44aa60b3fdab46\n    /* \"ProjectBlockchain.sol\":770:839  charity_org.push(payable(0x03C75cD4B2Aa25B848814D6ABD44AA60B3FdAB46)) */\n  swap1\n  dup1\n  0x01\n  dup2\n  sload\n  add\n  dup1\n  dup3\n  sstore\n  dup1\n  swap2\n  pop\n  pop\n  0x01\n  swap1\n  sub\n  swap1\n  0x00\n  mstore\n  keccak256(0x00, 0x20)\n  add\n  0x00\n  swap1\n  swap2\n  swap1\n  swap2\n  swap1\n  swap2\n  0x0100\n  exp\n  dup2\n  sload\n  dup2\n  0xffffffffffffffffffffffffffffffffffffffff\n  mul\n  not\n  and\n  swap1\n  dup4\n  0xffffffffffffffffffffffffffffffffffffffff\n  and\n  mul\n  or\n  swap1\n  sstore\n  pop\n    /* \"ProjectBlockchain.sol\":863:874  charity_org */\n  0x03\n    /* \"ProjectBlockchain.sol\":888:930  0x7Ab19cc3DC876D75E9cc0427EA0355B8600Ae8B7 */\n  0x7ab19cc3dc876d75e9cc0427ea0355b8600ae8b7\n    /* \"ProjectBlockchain.sol\":863:932  charity_org.push(payable(0x7Ab19cc3DC876D75E9cc0427EA0355B8600Ae8B7)) */\n  swap1\n  dup1\n  0x01\n  dup2\n  sload\n  add\n  dup1\n  dup3\n  sstore\n  dup1\n  swap2\n  pop\n  pop\n  0x01\n  swap1\n  sub\n  swap1\n  0x00\n  mstore\n  keccak256(0x00, 0x20)\n  add\n  0x00\n  swap1\n  swap2\n  swap1\n  swap2\n  swap1\n  swap2\n  0x0100\n  exp\n  dup2\n  sload\n  dup2\n  0xffffffffffffffffffffffffffffffffffffffff\n  mul\n  not\n  and\n  swap1\n  dup4\n  0xffffffffffffffffffffffffffffffffffffffff\n  and\n  mul\n  or\n  swap1\n  sstore\n  pop\n    /* \"ProjectBlockchain.sol\":66:2948  contract DonationTracking{... */\n  dataSize(sub_0)\n  dup1\n  dataOffset(sub_0)\n  0x00\n  codecopy\n  0x00\n  return\nstop\n\nsub_0: assembly {\n        /* \"ProjectBlockchain.sol\":66:2948  contract DonationTracking{... */\n      mstore(0x40, 0x80)\n      jumpi(tag_1, lt(calldatasize, 0x04))\n      shr(0xe0, calldataload(0x00))\n      dup1\n      0x62cef33c\n      gt\n      tag_14\n      jumpi\n      dup1\n      0x62cef33c\n      eq\n      tag_8\n      jumpi\n      dup1\n      0x79169f90\n      eq\n      tag_9\n      jumpi\n      dup1\n      0x8da5cb5b\n      eq\n      tag_10\n      jumpi\n      dup1\n      0xb97bee75\n      eq\n      tag_11\n      jumpi\n      dup1\n      0xd0e30db0\n      eq\n      tag_12\n      jumpi\n      dup1\n      0xf3fef3a3\n      eq\n      tag_13\n      jumpi\n      jump(tag_1)\n    tag_14:\n      dup1\n      0x12065fe0\n      eq\n      tag_2\n      jumpi\n      dup1\n      0x30df47af\n      eq\n      tag_3\n      jumpi\n      dup1\n      0x38cc4831\n      eq\n      tag_4\n      jumpi\n      dup1\n      0x3ba1d703\n      eq\n      tag_5\n      jumpi\n      dup1\n      0x4abfa163\n      eq\n      tag_6\n      jumpi\n      dup1\n      0x590791f2\n      eq\n      tag_7\n      jumpi\n    tag_1:\n      0x00\n      dup1\n      revert\n        /* \"ProjectBlockchain.sol\":2264:2359  function getBalance() external view returns(uint) {... */\n    tag_2:\n      callvalue\n      dup1\n      iszero\n      tag_15\n      jumpi\n      0x00\n      dup1\n      revert\n    tag_15:\n      pop\n      tag_16\n      tag_17\n      jump\t// in\n    tag_16:\n      mload(0x40)\n      tag_18\n      swap2\n      swap1\n      tag_19\n      jump\t// in\n    tag_18:\n      mload(0x40)\n      dup1\n      swap2\n      sub\n      swap1\n      return\n        /* \"ProjectBlockchain.sol\":2715:2945  function transferEth(address payable recipientWallet) external payable {... */\n    tag_3:\n      tag_20\n      0x04\n      dup1\n      calldatasize\n      sub\n      dup2\n      add\n      swap1\n      tag_21\n      swap2\n      swap1\n      tag_22\n      jump\t// in\n    tag_21:\n      tag_23\n      jump\t// in\n    tag_20:\n      stop\n        /* \"ProjectBlockchain.sol\":2130:2220  function getAddress() external view returns(address) {... */\n    tag_4:\n      callvalue\n      dup1\n      iszero\n      tag_24\n      jumpi\n      0x00\n      dup1\n      revert\n    tag_24:\n      pop\n      tag_25\n      tag_26\n      jump\t// in\n    tag_25:\n      mload(0x40)\n      tag_27\n      swap2\n      swap1\n      tag_28\n      jump\t// in\n    tag_27:\n      mload(0x40)\n      dup1\n      swap2\n      sub\n      swap1\n      return\n        /* \"ProjectBlockchain.sol\":482:518  address payable[] public charity_org */\n    tag_5:\n      callvalue\n      dup1\n      iszero\n      tag_29\n      jumpi\n      0x00\n      dup1\n      revert\n    tag_29:\n      pop\n      tag_30\n      0x04\n      dup1\n      calldatasize\n      sub\n      dup2\n      add\n      swap1\n      tag_31\n      swap2\n      swap1\n      tag_32\n      jump\t// in\n    tag_31:\n      tag_33\n      jump\t// in\n    tag_30:\n      mload(0x40)\n      tag_34\n      swap2\n      swap1\n      tag_35\n      jump\t// in\n    tag_34:\n      mload(0x40)\n      dup1\n      swap2\n      sub\n      swap1\n      return\n        /* \"ProjectBlockchain.sol\":307:331  address [] public donors */\n    tag_6:\n      callvalue\n      dup1\n      iszero\n      tag_36\n      jumpi\n      0x00\n      dup1\n      revert\n    tag_36:\n      pop\n      tag_37\n      0x04\n      dup1\n      calldatasize\n      sub\n      dup2\n      add\n      swap1\n      tag_38\n      swap2\n      swap1\n      tag_32\n      jump\t// in\n    tag_38:\n      tag_39\n      jump\t// in\n    tag_37:\n      mload(0x40)\n      tag_40\n      swap2\n      swap1\n      tag_28\n      jump\t// in\n    tag_40:\n      mload(0x40)\n      dup1\n      swap2\n      sub\n      swap1\n      return\n        /* \"ProjectBlockchain.sol\":2510:2609  function getOwnerBalance() public view returns (uint256) {... */\n    tag_7:\n      callvalue\n      dup1\n      iszero\n      tag_41\n      jumpi\n      0x00\n      dup1\n      revert\n    tag_41:\n      pop\n      tag_42\n      tag_43\n      jump\t// in\n    tag_42:\n      mload(0x40)\n      tag_44\n      swap2\n      swap1\n      tag_19\n      jump\t// in\n    tag_44:\n      mload(0x40)\n      dup1\n      swap2\n      sub\n      swap1\n      return\n        /* \"ProjectBlockchain.sol\":1607:2111  function transferToCharity(uint orgIndex) public {... */\n    tag_8:\n      callvalue\n      dup1\n      iszero\n      tag_45\n      jumpi\n      0x00\n      dup1\n      revert\n    tag_45:\n      pop\n      tag_46\n      0x04\n      dup1\n      calldatasize\n      sub\n      dup2\n      add\n      swap1\n      tag_47\n      swap2\n      swap1\n      tag_32\n      jump\t// in\n    tag_47:\n      tag_48\n      jump\t// in\n    tag_46:\n      stop\n        /* \"ProjectBlockchain.sol\":1009:1213  function addCharityOrganization(address payable newCharityOrg) public {... */\n    tag_9:\n      callvalue\n      dup1\n      iszero\n      tag_49\n      jumpi\n      0x00\n      dup1\n      revert\n    tag_49:\n      pop\n      tag_50\n      0x04\n      dup1\n      calldatasize\n      sub\n      dup2\n      add\n      swap1\n      tag_51\n      swap2\n      swap1\n      tag_22\n      jump\t// in\n    tag_51:\n      tag_52\n      jump\t// in\n    tag_50:\n      stop\n        /* \"ProjectBlockchain.sol\":248:268  address public owner */\n    tag_10:\n      callvalue\n      dup1\n      iszero\n      tag_53\n      jumpi\n      0x00\n      dup1\n      revert\n    tag_53:\n      pop\n      tag_54\n      tag_55\n      jump\t// in\n    tag_54:\n      mload(0x40)\n      tag_56\n      swap2\n      swap1\n      tag_28\n      jump\t// in\n    tag_56:\n      mload(0x40)\n      dup1\n      swap2\n      sub\n      swap1\n      return\n        /* \"ProjectBlockchain.sol\":394:422  uint public selectedOrgIndex */\n    tag_11:\n      callvalue\n      dup1\n      iszero\n      tag_57\n      jumpi\n      0x00\n      dup1\n      revert\n    tag_57:\n      pop\n      tag_58\n      tag_59\n      jump\t// in\n    tag_58:\n      mload(0x40)\n      tag_60\n      swap2\n      swap1\n      tag_19\n      jump\t// in\n    tag_60:\n      mload(0x40)\n      dup1\n      swap2\n      sub\n      swap1\n      return\n        /* \"ProjectBlockchain.sol\":1292:1465  function deposit() external payable {... */\n    tag_12:\n      tag_61\n      tag_62\n      jump\t// in\n    tag_61:\n      stop\n        /* \"ProjectBlockchain.sol\":2369:2469  function withdraw(address payable _to, uint _amount) external {... */\n    tag_13:\n      callvalue\n      dup1\n      iszero\n      tag_63\n      jumpi\n      0x00\n      dup1\n      revert\n    tag_63:\n      pop\n      tag_64\n      0x04\n      dup1\n      calldatasize\n      sub\n      dup2\n      add\n      swap1\n      tag_65\n      swap2\n      swap1\n      tag_66\n      jump\t// in\n    tag_65:\n      tag_67\n      jump\t// in\n    tag_64:\n      stop\n        /* \"ProjectBlockchain.sol\":2264:2359  function getBalance() external view returns(uint) {... */\n    tag_17:\n        /* \"ProjectBlockchain.sol\":2308:2312  uint */\n      0x00\n        /* \"ProjectBlockchain.sol\":2331:2352  address(this).balance */\n      selfbalance\n        /* \"ProjectBlockchain.sol\":2324:2352  return address(this).balance */\n      swap1\n      pop\n        /* \"ProjectBlockchain.sol\":2264:2359  function getBalance() external view returns(uint) {... */\n      swap1\n      jump\t// out\n        /* \"ProjectBlockchain.sol\":2715:2945  function transferEth(address payable recipientWallet) external payable {... */\n    tag_23:\n        /* \"ProjectBlockchain.sol\":2827:2836  msg.value */\n      callvalue\n        /* \"ProjectBlockchain.sol\":2805:2815  msg.sender */\n      caller\n        /* \"ProjectBlockchain.sol\":2805:2823  msg.sender.balance */\n      0xffffffffffffffffffffffffffffffffffffffff\n      and\n      balance\n        /* \"ProjectBlockchain.sol\":2805:2836  msg.sender.balance >= msg.value */\n      lt\n      iszero\n        /* \"ProjectBlockchain.sol\":2797:2884  require(msg.sender.balance >= msg.value, \"Insufficient balance to perform transaction\") */\n      tag_70\n      jumpi\n      mload(0x40)\n      0x08c379a000000000000000000000000000000000000000000000000000000000\n      dup2\n      mstore\n      0x04\n      add\n      tag_71\n      swap1\n      tag_72\n      jump\t// in\n    tag_71:\n      mload(0x40)\n      dup1\n      swap2\n      sub\n      swap1\n      revert\n    tag_70:\n        /* \"ProjectBlockchain.sol\":2903:2918  recipientWallet */\n      dup1\n        /* \"ProjectBlockchain.sol\":2903:2927  recipientWallet.transfer */\n      0xffffffffffffffffffffffffffffffffffffffff\n      and\n        /* \"ProjectBlockchain.sol\":2903:2938  recipientWallet.transfer(msg.value) */\n      0x08fc\n        /* \"ProjectBlockchain.sol\":2928:2937  msg.value */\n      callvalue\n        /* \"ProjectBlockchain.sol\":2903:2938  recipientWallet.transfer(msg.value) */\n      swap1\n      dup2\n      iszero\n      mul\n      swap1\n      mload(0x40)\n      0x00\n      mload(0x40)\n      dup1\n      dup4\n      sub\n      dup2\n      dup6\n      dup9\n      dup9\n      call\n      swap4\n      pop\n      pop\n      pop\n      pop\n      iszero\n      dup1\n      iszero\n      tag_74\n      jumpi\n      returndatasize\n      0x00\n      dup1\n      returndatacopy\n      revert(0x00, returndatasize)\n    tag_74:\n      pop\n        /* \"ProjectBlockchain.sol\":2715:2945  function transferEth(address payable recipientWallet) external payable {... */\n      pop\n      jump\t// out\n        /* \"ProjectBlockchain.sol\":2130:2220  function getAddress() external view returns(address) {... */\n    tag_26:\n        /* \"ProjectBlockchain.sol\":2174:2181  address */\n      0x00\n        /* \"ProjectBlockchain.sol\":2208:2212  this */\n      address\n        /* \"ProjectBlockchain.sol\":2193:2213  return address(this) */\n      swap1\n      pop\n        /* \"ProjectBlockchain.sol\":2130:2220  function getAddress() external view returns(address) {... */\n      swap1\n      jump\t// out\n        /* \"ProjectBlockchain.sol\":482:518  address payable[] public charity_org */\n    tag_33:\n      0x03\n      dup2\n      dup2\n      sload\n      dup2\n      lt\n      tag_76\n      jumpi\n      0x00\n      dup1\n      revert\n    tag_76:\n      swap1\n      0x00\n      mstore\n      keccak256(0x00, 0x20)\n      add\n      0x00\n      swap2\n      pop\n      sload\n      swap1\n      0x0100\n      exp\n      swap1\n      div\n      0xffffffffffffffffffffffffffffffffffffffff\n      and\n      dup2\n      jump\t// out\n        /* \"ProjectBlockchain.sol\":307:331  address [] public donors */\n    tag_39:\n      0x01\n      dup2\n      dup2\n      sload\n      dup2\n      lt\n      tag_78\n      jumpi\n      0x00\n      dup1\n      revert\n    tag_78:\n      swap1\n      0x00\n      mstore\n      keccak256(0x00, 0x20)\n      add\n      0x00\n      swap2\n      pop\n      sload\n      swap1\n      0x0100\n      exp\n      swap1\n      div\n      0xffffffffffffffffffffffffffffffffffffffff\n      and\n      dup2\n      jump\t// out\n        /* \"ProjectBlockchain.sol\":2510:2609  function getOwnerBalance() public view returns (uint256) {... */\n    tag_43:\n        /* \"ProjectBlockchain.sol\":2558:2565  uint256 */\n      0x00\n        /* \"ProjectBlockchain.sol\":2584:2594  msg.sender */\n      caller\n        /* \"ProjectBlockchain.sol\":2584:2602  msg.sender.balance */\n      0xffffffffffffffffffffffffffffffffffffffff\n      and\n      balance\n        /* \"ProjectBlockchain.sol\":2577:2602  return msg.sender.balance */\n      swap1\n      pop\n        /* \"ProjectBlockchain.sol\":2510:2609  function getOwnerBalance() public view returns (uint256) {... */\n      swap1\n      jump\t// out\n        /* \"ProjectBlockchain.sol\":1607:2111  function transferToCharity(uint orgIndex) public {... */\n    tag_48:\n        /* \"ProjectBlockchain.sol\":1685:1696  charity_org */\n      0x03\n        /* \"ProjectBlockchain.sol\":1685:1703  charity_org.length */\n      dup1\n      sload\n      swap1\n      pop\n        /* \"ProjectBlockchain.sol\":1674:1682  orgIndex */\n      dup2\n        /* \"ProjectBlockchain.sol\":1674:1703  orgIndex < charity_org.length */\n      lt\n        /* \"ProjectBlockchain.sol\":1666:1734  require(orgIndex < charity_org.length, \"Invalid organization index\") */\n      tag_82\n      jumpi\n      mload(0x40)\n      0x08c379a000000000000000000000000000000000000000000000000000000000\n      dup2\n      mstore\n      0x04\n      add\n      tag_83\n      swap1\n      tag_84\n      jump\t// in\n    tag_83:\n      mload(0x40)\n      dup1\n      swap2\n      sub\n      swap1\n      revert\n    tag_82:\n        /* \"ProjectBlockchain.sol\":1744:1778  address payable selectedCharityOrg */\n      0x00\n        /* \"ProjectBlockchain.sol\":1781:1792  charity_org */\n      0x03\n        /* \"ProjectBlockchain.sol\":1793:1801  orgIndex */\n      dup3\n        /* \"ProjectBlockchain.sol\":1781:1802  charity_org[orgIndex] */\n      dup2\n      sload\n      dup2\n      lt\n      tag_85\n      jumpi\n      tag_86\n      tag_87\n      jump\t// in\n    tag_86:\n    tag_85:\n      swap1\n      0x00\n      mstore\n      keccak256(0x00, 0x20)\n      add\n      0x00\n      swap1\n      sload\n      swap1\n      0x0100\n      exp\n      swap1\n      div\n      0xffffffffffffffffffffffffffffffffffffffff\n      and\n        /* \"ProjectBlockchain.sol\":1744:1802  address payable selectedCharityOrg = charity_org[orgIndex] */\n      swap1\n      pop\n        /* \"ProjectBlockchain.sol\":1863:1882  uint donationAmount */\n      0x00\n        /* \"ProjectBlockchain.sol\":1885:1906  address(this).balance */\n      selfbalance\n        /* \"ProjectBlockchain.sol\":1863:1906  uint donationAmount = address(this).balance */\n      swap1\n      pop\n        /* \"ProjectBlockchain.sol\":1953:1971  selectedCharityOrg */\n      dup2\n        /* \"ProjectBlockchain.sol\":1953:1980  selectedCharityOrg.transfer */\n      0xffffffffffffffffffffffffffffffffffffffff\n      and\n        /* \"ProjectBlockchain.sol\":1953:1996  selectedCharityOrg.transfer(donationAmount) */\n      0x08fc\n        /* \"ProjectBlockchain.sol\":1981:1995  donationAmount */\n      dup3\n        /* \"ProjectBlockchain.sol\":1953:1996  selectedCharityOrg.transfer(donationAmount) */\n      swap1\n      dup2\n      iszero\n      mul\n      swap1\n      mload(0x40)\n      0x00\n      mload(0x40)\n      dup1\n      dup4\n      sub\n      dup2\n      dup6\n      dup9\n      dup9\n      call\n      swap4\n      pop\n      pop\n      pop\n      pop\n      iszero\n      dup1\n      iszero\n      tag_90\n      jumpi\n      returndatasize\n      0x00\n      dup1\n      returndatacopy\n      revert(0x00, returndatasize)\n    tag_90:\n      pop\n        /* \"ProjectBlockchain.sol\":2041:2100  transferLog(msg.sender, selectedCharityOrg, donationAmount) */\n      0x2201ba208c4911c272080234aab59a1c2a0dc0be34da59b1a1f388c7c303c6ca\n        /* \"ProjectBlockchain.sol\":2053:2063  msg.sender */\n      caller\n        /* \"ProjectBlockchain.sol\":2065:2083  selectedCharityOrg */\n      dup4\n        /* \"ProjectBlockchain.sol\":2085:2099  donationAmount */\n      dup4\n        /* \"ProjectBlockchain.sol\":2041:2100  transferLog(msg.sender, selectedCharityOrg, donationAmount) */\n      mload(0x40)\n      tag_91\n      swap4\n      swap3\n      swap2\n      swap1\n      tag_92\n      jump\t// in\n    tag_91:\n      mload(0x40)\n      dup1\n      swap2\n      sub\n      swap1\n      log1\n        /* \"ProjectBlockchain.sol\":1656:2111  {... */\n      pop\n      pop\n        /* \"ProjectBlockchain.sol\":1607:2111  function transferToCharity(uint orgIndex) public {... */\n      pop\n      jump\t// out\n        /* \"ProjectBlockchain.sol\":1009:1213  function addCharityOrganization(address payable newCharityOrg) public {... */\n    tag_52:\n        /* \"ProjectBlockchain.sol\":1111:1116  owner */\n      0x00\n      dup1\n      sload\n      swap1\n      0x0100\n      exp\n      swap1\n      div\n      0xffffffffffffffffffffffffffffffffffffffff\n      and\n        /* \"ProjectBlockchain.sol\":1097:1116  msg.sender == owner */\n      0xffffffffffffffffffffffffffffffffffffffff\n      and\n        /* \"ProjectBlockchain.sol\":1097:1107  msg.sender */\n      caller\n        /* \"ProjectBlockchain.sol\":1097:1116  msg.sender == owner */\n      0xffffffffffffffffffffffffffffffffffffffff\n      and\n      eq\n        /* \"ProjectBlockchain.sol\":1089:1165  require(msg.sender == owner, \"Only the owner can add charity organizations\") */\n      tag_94\n      jumpi\n      mload(0x40)\n      0x08c379a000000000000000000000000000000000000000000000000000000000\n      dup2\n      mstore\n      0x04\n      add\n      tag_95\n      swap1\n      tag_96\n      jump\t// in\n    tag_95:\n      mload(0x40)\n      dup1\n      swap2\n      sub\n      swap1\n      revert\n    tag_94:\n        /* \"ProjectBlockchain.sol\":1175:1186  charity_org */\n      0x03\n        /* \"ProjectBlockchain.sol\":1192:1205  newCharityOrg */\n      dup2\n        /* \"ProjectBlockchain.sol\":1175:1206  charity_org.push(newCharityOrg) */\n      swap1\n      dup1\n      0x01\n      dup2\n      sload\n      add\n      dup1\n      dup3\n      sstore\n      dup1\n      swap2\n      pop\n      pop\n      0x01\n      swap1\n      sub\n      swap1\n      0x00\n      mstore\n      keccak256(0x00, 0x20)\n      add\n      0x00\n      swap1\n      swap2\n      swap1\n      swap2\n      swap1\n      swap2\n      0x0100\n      exp\n      dup2\n      sload\n      dup2\n      0xffffffffffffffffffffffffffffffffffffffff\n      mul\n      not\n      and\n      swap1\n      dup4\n      0xffffffffffffffffffffffffffffffffffffffff\n      and\n      mul\n      or\n      swap1\n      sstore\n      pop\n        /* \"ProjectBlockchain.sol\":1009:1213  function addCharityOrganization(address payable newCharityOrg) public {... */\n      pop\n      jump\t// out\n        /* \"ProjectBlockchain.sol\":248:268  address public owner */\n    tag_55:\n      0x00\n      dup1\n      sload\n      swap1\n      0x0100\n      exp\n      swap1\n      div\n      0xffffffffffffffffffffffffffffffffffffffff\n      and\n      dup2\n      jump\t// out\n        /* \"ProjectBlockchain.sol\":394:422  uint public selectedOrgIndex */\n    tag_59:\n      sload(0x02)\n      dup2\n      jump\t// out\n        /* \"ProjectBlockchain.sol\":1292:1465  function deposit() external payable {... */\n    tag_62:\n        /* \"ProjectBlockchain.sol\":1359:1371  0.0001 ether */\n      0x5af3107a4000\n        /* \"ProjectBlockchain.sol\":1346:1355  msg.value */\n      callvalue\n        /* \"ProjectBlockchain.sol\":1346:1371  msg.value >= 0.0001 ether */\n      lt\n      iszero\n        /* \"ProjectBlockchain.sol\":1338:1415  require(msg.value >= 0.0001 ether, \"Donation amount must be at least 0.0001\") */\n      tag_99\n      jumpi\n      mload(0x40)\n      0x08c379a000000000000000000000000000000000000000000000000000000000\n      dup2\n      mstore\n      0x04\n      add\n      tag_100\n      swap1\n      tag_101\n      jump\t// in\n    tag_100:\n      mload(0x40)\n      dup1\n      swap2\n      sub\n      swap1\n      revert\n    tag_99:\n        /* \"ProjectBlockchain.sol\":1425:1431  donors */\n      0x01\n        /* \"ProjectBlockchain.sol\":1445:1455  msg.sender */\n      caller\n        /* \"ProjectBlockchain.sol\":1425:1457  donors.push(payable(msg.sender)) */\n      swap1\n      dup1\n      0x01\n      dup2\n      sload\n      add\n      dup1\n      dup3\n      sstore\n      dup1\n      swap2\n      pop\n      pop\n      0x01\n      swap1\n      sub\n      swap1\n      0x00\n      mstore\n      keccak256(0x00, 0x20)\n      add\n      0x00\n      swap1\n      swap2\n      swap1\n      swap2\n      swap1\n      swap2\n      0x0100\n      exp\n      dup2\n      sload\n      dup2\n      0xffffffffffffffffffffffffffffffffffffffff\n      mul\n      not\n      and\n      swap1\n      dup4\n      0xffffffffffffffffffffffffffffffffffffffff\n      and\n      mul\n      or\n      swap1\n      sstore\n      pop\n        /* \"ProjectBlockchain.sol\":1292:1465  function deposit() external payable {... */\n      jump\t// out\n        /* \"ProjectBlockchain.sol\":2369:2469  function withdraw(address payable _to, uint _amount) external {... */\n    tag_67:\n        /* \"ProjectBlockchain.sol\":2441:2444  _to */\n      dup2\n        /* \"ProjectBlockchain.sol\":2441:2453  _to.transfer */\n      0xffffffffffffffffffffffffffffffffffffffff\n      and\n        /* \"ProjectBlockchain.sol\":2441:2462  _to.transfer(_amount) */\n      0x08fc\n        /* \"ProjectBlockchain.sol\":2454:2461  _amount */\n      dup3\n        /* \"ProjectBlockchain.sol\":2441:2462  _to.transfer(_amount) */\n      swap1\n      dup2\n      iszero\n      mul\n      swap1\n      mload(0x40)\n      0x00\n      mload(0x40)\n      dup1\n      dup4\n      sub\n      dup2\n      dup6\n      dup9\n      dup9\n      call\n      swap4\n      pop\n      pop\n      pop\n      pop\n      iszero\n      dup1\n      iszero\n      tag_105\n      jumpi\n      returndatasize\n      0x00\n      dup1\n      returndatacopy\n      revert(0x00, returndatasize)\n    tag_105:\n      pop\n        /* \"ProjectBlockchain.sol\":2369:2469  function withdraw(address payable _to, uint _amount) external {... */\n      pop\n      pop\n      jump\t// out\n        /* \"#utility.yul\":7:84   */\n    tag_106:\n        /* \"#utility.yul\":44:51   */\n      0x00\n        /* \"#utility.yul\":73:78   */\n      dup2\n        /* \"#utility.yul\":62:78   */\n      swap1\n      pop\n        /* \"#utility.yul\":7:84   */\n      swap2\n      swap1\n      pop\n      jump\t// out\n        /* \"#utility.yul\":90:208   */\n    tag_107:\n        /* \"#utility.yul\":177:201   */\n      tag_137\n        /* \"#utility.yul\":195:200   */\n      dup2\n        /* \"#utility.yul\":177:201   */\n      tag_106\n      jump\t// in\n    tag_137:\n        /* \"#utility.yul\":172:175   */\n      dup3\n        /* \"#utility.yul\":165:202   */\n      mstore\n        /* \"#utility.yul\":90:208   */\n      pop\n      pop\n      jump\t// out\n        /* \"#utility.yul\":214:436   */\n    tag_19:\n        /* \"#utility.yul\":307:311   */\n      0x00\n        /* \"#utility.yul\":345:347   */\n      0x20\n        /* \"#utility.yul\":334:343   */\n      dup3\n        /* \"#utility.yul\":330:348   */\n      add\n        /* \"#utility.yul\":322:348   */\n      swap1\n      pop\n        /* \"#utility.yul\":358:429   */\n      tag_139\n        /* \"#utility.yul\":426:427   */\n      0x00\n        /* \"#utility.yul\":415:424   */\n      dup4\n        /* \"#utility.yul\":411:428   */\n      add\n        /* \"#utility.yul\":402:408   */\n      dup5\n        /* \"#utility.yul\":358:429   */\n      tag_107\n      jump\t// in\n    tag_139:\n        /* \"#utility.yul\":214:436   */\n      swap3\n      swap2\n      pop\n      pop\n      jump\t// out\n        /* \"#utility.yul\":523:640   */\n    tag_109:\n        /* \"#utility.yul\":632:633   */\n      0x00\n        /* \"#utility.yul\":629:630   */\n      dup1\n        /* \"#utility.yul\":622:634   */\n      revert\n        /* \"#utility.yul\":769:895   */\n    tag_111:\n        /* \"#utility.yul\":806:813   */\n      0x00\n        /* \"#utility.yul\":846:888   */\n      0xffffffffffffffffffffffffffffffffffffffff\n        /* \"#utility.yul\":839:844   */\n      dup3\n        /* \"#utility.yul\":835:889   */\n      and\n        /* \"#utility.yul\":824:889   */\n      swap1\n      pop\n        /* \"#utility.yul\":769:895   */\n      swap2\n      swap1\n      pop\n      jump\t// out\n        /* \"#utility.yul\":901:1005   */\n    tag_112:\n        /* \"#utility.yul\":946:953   */\n      0x00\n        /* \"#utility.yul\":975:999   */\n      tag_145\n        /* \"#utility.yul\":993:998   */\n      dup3\n        /* \"#utility.yul\":975:999   */\n      tag_111\n      jump\t// in\n    tag_145:\n        /* \"#utility.yul\":964:999   */\n      swap1\n      pop\n        /* \"#utility.yul\":901:1005   */\n      swap2\n      swap1\n      pop\n      jump\t// out\n        /* \"#utility.yul\":1011:1149   */\n    tag_113:\n        /* \"#utility.yul\":1092:1124   */\n      tag_147\n        /* \"#utility.yul\":1118:1123   */\n      dup2\n        /* \"#utility.yul\":1092:1124   */\n      tag_112\n      jump\t// in\n    tag_147:\n        /* \"#utility.yul\":1085:1090   */\n      dup2\n        /* \"#utility.yul\":1082:1125   */\n      eq\n        /* \"#utility.yul\":1072:1143   */\n      tag_148\n      jumpi\n        /* \"#utility.yul\":1139:1140   */\n      0x00\n        /* \"#utility.yul\":1136:1137   */\n      dup1\n        /* \"#utility.yul\":1129:1141   */\n      revert\n        /* \"#utility.yul\":1072:1143   */\n    tag_148:\n        /* \"#utility.yul\":1011:1149   */\n      pop\n      jump\t// out\n        /* \"#utility.yul\":1155:1310   */\n    tag_114:\n        /* \"#utility.yul\":1209:1214   */\n      0x00\n        /* \"#utility.yul\":1247:1253   */\n      dup2\n        /* \"#utility.yul\":1234:1254   */\n      calldataload\n        /* \"#utility.yul\":1225:1254   */\n      swap1\n      pop\n        /* \"#utility.yul\":1263:1304   */\n      tag_150\n        /* \"#utility.yul\":1298:1303   */\n      dup2\n        /* \"#utility.yul\":1263:1304   */\n      tag_113\n      jump\t// in\n    tag_150:\n        /* \"#utility.yul\":1155:1310   */\n      swap3\n      swap2\n      pop\n      pop\n      jump\t// out\n        /* \"#utility.yul\":1316:1661   */\n    tag_22:\n        /* \"#utility.yul\":1383:1389   */\n      0x00\n        /* \"#utility.yul\":1432:1434   */\n      0x20\n        /* \"#utility.yul\":1420:1429   */\n      dup3\n        /* \"#utility.yul\":1411:1418   */\n      dup5\n        /* \"#utility.yul\":1407:1430   */\n      sub\n        /* \"#utility.yul\":1403:1435   */\n      slt\n        /* \"#utility.yul\":1400:1519   */\n      iszero\n      tag_152\n      jumpi\n        /* \"#utility.yul\":1438:1517   */\n      tag_153\n      tag_109\n      jump\t// in\n    tag_153:\n        /* \"#utility.yul\":1400:1519   */\n    tag_152:\n        /* \"#utility.yul\":1558:1559   */\n      0x00\n        /* \"#utility.yul\":1583:1644   */\n      tag_154\n        /* \"#utility.yul\":1636:1643   */\n      dup5\n        /* \"#utility.yul\":1627:1633   */\n      dup3\n        /* \"#utility.yul\":1616:1625   */\n      dup6\n        /* \"#utility.yul\":1612:1634   */\n      add\n        /* \"#utility.yul\":1583:1644   */\n      tag_114\n      jump\t// in\n    tag_154:\n        /* \"#utility.yul\":1573:1644   */\n      swap2\n      pop\n        /* \"#utility.yul\":1529:1654   */\n      pop\n        /* \"#utility.yul\":1316:1661   */\n      swap3\n      swap2\n      pop\n      pop\n      jump\t// out\n        /* \"#utility.yul\":1667:1763   */\n    tag_115:\n        /* \"#utility.yul\":1704:1711   */\n      0x00\n        /* \"#utility.yul\":1733:1757   */\n      tag_156\n        /* \"#utility.yul\":1751:1756   */\n      dup3\n        /* \"#utility.yul\":1733:1757   */\n      tag_111\n      jump\t// in\n    tag_156:\n        /* \"#utility.yul\":1722:1757   */\n      swap1\n      pop\n        /* \"#utility.yul\":1667:1763   */\n      swap2\n      swap1\n      pop\n      jump\t// out\n        /* \"#utility.yul\":1769:1887   */\n    tag_116:\n        /* \"#utility.yul\":1856:1880   */\n      tag_158\n        /* \"#utility.yul\":1874:1879   */\n      dup2\n        /* \"#utility.yul\":1856:1880   */\n      tag_115\n      jump\t// in\n    tag_158:\n        /* \"#utility.yul\":1851:1854   */\n      dup3\n        /* \"#utility.yul\":1844:1881   */\n      mstore\n        /* \"#utility.yul\":1769:1887   */\n      pop\n      pop\n      jump\t// out\n        /* \"#utility.yul\":1893:2115   */\n    tag_28:\n        /* \"#utility.yul\":1986:1990   */\n      0x00\n        /* \"#utility.yul\":2024:2026   */\n      0x20\n        /* \"#utility.yul\":2013:2022   */\n      dup3\n        /* \"#utility.yul\":2009:2027   */\n      add\n        /* \"#utility.yul\":2001:2027   */\n      swap1\n      pop\n        /* \"#utility.yul\":2037:2108   */\n      tag_160\n        /* \"#utility.yul\":2105:2106   */\n      0x00\n        /* \"#utility.yul\":2094:2103   */\n      dup4\n        /* \"#utility.yul\":2090:2107   */\n      add\n        /* \"#utility.yul\":2081:2087   */\n      dup5\n        /* \"#utility.yul\":2037:2108   */\n      tag_116\n      jump\t// in\n    tag_160:\n        /* \"#utility.yul\":1893:2115   */\n      swap3\n      swap2\n      pop\n      pop\n      jump\t// out\n        /* \"#utility.yul\":2121:2243   */\n    tag_117:\n        /* \"#utility.yul\":2194:2218   */\n      tag_162\n        /* \"#utility.yul\":2212:2217   */\n      dup2\n        /* \"#utility.yul\":2194:2218   */\n      tag_106\n      jump\t// in\n    tag_162:\n        /* \"#utility.yul\":2187:2192   */\n      dup2\n        /* \"#utility.yul\":2184:2219   */\n      eq\n        /* \"#utility.yul\":2174:2237   */\n      tag_163\n      jumpi\n        /* \"#utility.yul\":2233:2234   */\n      0x00\n        /* \"#utility.yul\":2230:2231   */\n      dup1\n        /* \"#utility.yul\":2223:2235   */\n      revert\n        /* \"#utility.yul\":2174:2237   */\n    tag_163:\n        /* \"#utility.yul\":2121:2243   */\n      pop\n      jump\t// out\n        /* \"#utility.yul\":2249:2388   */\n    tag_118:\n        /* \"#utility.yul\":2295:2300   */\n      0x00\n        /* \"#utility.yul\":2333:2339   */\n      dup2\n        /* \"#utility.yul\":2320:2340   */\n      calldataload\n        /* \"#utility.yul\":2311:2340   */\n      swap1\n      pop\n        /* \"#utility.yul\":2349:2382   */\n      tag_165\n        /* \"#utility.yul\":2376:2381   */\n      dup2\n        /* \"#utility.yul\":2349:2382   */\n      tag_117\n      jump\t// in\n    tag_165:\n        /* \"#utility.yul\":2249:2388   */\n      swap3\n      swap2\n      pop\n      pop\n      jump\t// out\n        /* \"#utility.yul\":2394:2723   */\n    tag_32:\n        /* \"#utility.yul\":2453:2459   */\n      0x00\n        /* \"#utility.yul\":2502:2504   */\n      0x20\n        /* \"#utility.yul\":2490:2499   */\n      dup3\n        /* \"#utility.yul\":2481:2488   */\n      dup5\n        /* \"#utility.yul\":2477:2500   */\n      sub\n        /* \"#utility.yul\":2473:2505   */\n      slt\n        /* \"#utility.yul\":2470:2589   */\n      iszero\n      tag_167\n      jumpi\n        /* \"#utility.yul\":2508:2587   */\n      tag_168\n      tag_109\n      jump\t// in\n    tag_168:\n        /* \"#utility.yul\":2470:2589   */\n    tag_167:\n        /* \"#utility.yul\":2628:2629   */\n      0x00\n        /* \"#utility.yul\":2653:2706   */\n      tag_169\n        /* \"#utility.yul\":2698:2705   */\n      dup5\n        /* \"#utility.yul\":2689:2695   */\n      dup3\n        /* \"#utility.yul\":2678:2687   */\n      dup6\n        /* \"#utility.yul\":2674:2696   */\n      add\n        /* \"#utility.yul\":2653:2706   */\n      tag_118\n      jump\t// in\n    tag_169:\n        /* \"#utility.yul\":2643:2706   */\n      swap2\n      pop\n        /* \"#utility.yul\":2599:2716   */\n      pop\n        /* \"#utility.yul\":2394:2723   */\n      swap3\n      swap2\n      pop\n      pop\n      jump\t// out\n        /* \"#utility.yul\":2729:2871   */\n    tag_119:\n        /* \"#utility.yul\":2832:2864   */\n      tag_171\n        /* \"#utility.yul\":2858:2863   */\n      dup2\n        /* \"#utility.yul\":2832:2864   */\n      tag_112\n      jump\t// in\n    tag_171:\n        /* \"#utility.yul\":2827:2830   */\n      dup3\n        /* \"#utility.yul\":2820:2865   */\n      mstore\n        /* \"#utility.yul\":2729:2871   */\n      pop\n      pop\n      jump\t// out\n        /* \"#utility.yul\":2877:3131   */\n    tag_35:\n        /* \"#utility.yul\":2986:2990   */\n      0x00\n        /* \"#utility.yul\":3024:3026   */\n      0x20\n        /* \"#utility.yul\":3013:3022   */\n      dup3\n        /* \"#utility.yul\":3009:3027   */\n      add\n        /* \"#utility.yul\":3001:3027   */\n      swap1\n      pop\n        /* \"#utility.yul\":3037:3124   */\n      tag_173\n        /* \"#utility.yul\":3121:3122   */\n      0x00\n        /* \"#utility.yul\":3110:3119   */\n      dup4\n        /* \"#utility.yul\":3106:3123   */\n      add\n        /* \"#utility.yul\":3097:3103   */\n      dup5\n        /* \"#utility.yul\":3037:3124   */\n      tag_119\n      jump\t// in\n    tag_173:\n        /* \"#utility.yul\":2877:3131   */\n      swap3\n      swap2\n      pop\n      pop\n      jump\t// out\n        /* \"#utility.yul\":3137:3627   */\n    tag_66:\n        /* \"#utility.yul\":3213:3219   */\n      0x00\n        /* \"#utility.yul\":3221:3227   */\n      dup1\n        /* \"#utility.yul\":3270:3272   */\n      0x40\n        /* \"#utility.yul\":3258:3267   */\n      dup4\n        /* \"#utility.yul\":3249:3256   */\n      dup6\n        /* \"#utility.yul\":3245:3268   */\n      sub\n        /* \"#utility.yul\":3241:3273   */\n      slt\n        /* \"#utility.yul\":3238:3357   */\n      iszero\n      tag_175\n      jumpi\n        /* \"#utility.yul\":3276:3355   */\n      tag_176\n      tag_109\n      jump\t// in\n    tag_176:\n        /* \"#utility.yul\":3238:3357   */\n    tag_175:\n        /* \"#utility.yul\":3396:3397   */\n      0x00\n        /* \"#utility.yul\":3421:3482   */\n      tag_177\n        /* \"#utility.yul\":3474:3481   */\n      dup6\n        /* \"#utility.yul\":3465:3471   */\n      dup3\n        /* \"#utility.yul\":3454:3463   */\n      dup7\n        /* \"#utility.yul\":3450:3472   */\n      add\n        /* \"#utility.yul\":3421:3482   */\n      tag_114\n      jump\t// in\n    tag_177:\n        /* \"#utility.yul\":3411:3482   */\n      swap3\n      pop\n        /* \"#utility.yul\":3367:3492   */\n      pop\n        /* \"#utility.yul\":3531:3533   */\n      0x20\n        /* \"#utility.yul\":3557:3610   */\n      tag_178\n        /* \"#utility.yul\":3602:3609   */\n      dup6\n        /* \"#utility.yul\":3593:3599   */\n      dup3\n        /* \"#utility.yul\":3582:3591   */\n      dup7\n        /* \"#utility.yul\":3578:3600   */\n      add\n        /* \"#utility.yul\":3557:3610   */\n      tag_118\n      jump\t// in\n    tag_178:\n        /* \"#utility.yul\":3547:3610   */\n      swap2\n      pop\n        /* \"#utility.yul\":3502:3620   */\n      pop\n        /* \"#utility.yul\":3137:3627   */\n      swap3\n      pop\n      swap3\n      swap1\n      pop\n      jump\t// out\n        /* \"#utility.yul\":3633:3802   */\n    tag_120:\n        /* \"#utility.yul\":3717:3728   */\n      0x00\n        /* \"#utility.yul\":3751:3757   */\n      dup3\n        /* \"#utility.yul\":3746:3749   */\n      dup3\n        /* \"#utility.yul\":3739:3758   */\n      mstore\n        /* \"#utility.yul\":3791:3795   */\n      0x20\n        /* \"#utility.yul\":3786:3789   */\n      dup3\n        /* \"#utility.yul\":3782:3796   */\n      add\n        /* \"#utility.yul\":3767:3796   */\n      swap1\n      pop\n        /* \"#utility.yul\":3633:3802   */\n      swap3\n      swap2\n      pop\n      pop\n      jump\t// out\n        /* \"#utility.yul\":3808:4038   */\n    tag_121:\n        /* \"#utility.yul\":3948:3982   */\n      0x496e73756666696369656e742062616c616e636520746f20706572666f726d20\n        /* \"#utility.yul\":3944:3945   */\n      0x00\n        /* \"#utility.yul\":3936:3942   */\n      dup3\n        /* \"#utility.yul\":3932:3946   */\n      add\n        /* \"#utility.yul\":3925:3983   */\n      mstore\n        /* \"#utility.yul\":4017:4030   */\n      0x7472616e73616374696f6e000000000000000000000000000000000000000000\n        /* \"#utility.yul\":4012:4014   */\n      0x20\n        /* \"#utility.yul\":4004:4010   */\n      dup3\n        /* \"#utility.yul\":4000:4015   */\n      add\n        /* \"#utility.yul\":3993:4031   */\n      mstore\n        /* \"#utility.yul\":3808:4038   */\n      pop\n      jump\t// out\n        /* \"#utility.yul\":4044:4410   */\n    tag_122:\n        /* \"#utility.yul\":4186:4189   */\n      0x00\n        /* \"#utility.yul\":4207:4274   */\n      tag_182\n        /* \"#utility.yul\":4271:4273   */\n      0x2b\n        /* \"#utility.yul\":4266:4269   */\n      dup4\n        /* \"#utility.yul\":4207:4274   */\n      tag_120\n      jump\t// in\n    tag_182:\n        /* \"#utility.yul\":4200:4274   */\n      swap2\n      pop\n        /* \"#utility.yul\":4283:4376   */\n      tag_183\n        /* \"#utility.yul\":4372:4375   */\n      dup3\n        /* \"#utility.yul\":4283:4376   */\n      tag_121\n      jump\t// in\n    tag_183:\n        /* \"#utility.yul\":4401:4403   */\n      0x40\n        /* \"#utility.yul\":4396:4399   */\n      dup3\n        /* \"#utility.yul\":4392:4404   */\n      add\n        /* \"#utility.yul\":4385:4404   */\n      swap1\n      pop\n        /* \"#utility.yul\":4044:4410   */\n      swap2\n      swap1\n      pop\n      jump\t// out\n        /* \"#utility.yul\":4416:4835   */\n    tag_72:\n        /* \"#utility.yul\":4582:4586   */\n      0x00\n        /* \"#utility.yul\":4620:4622   */\n      0x20\n        /* \"#utility.yul\":4609:4618   */\n      dup3\n        /* \"#utility.yul\":4605:4623   */\n      add\n        /* \"#utility.yul\":4597:4623   */\n      swap1\n      pop\n        /* \"#utility.yul\":4669:4678   */\n      dup2\n        /* \"#utility.yul\":4663:4667   */\n      dup2\n        /* \"#utility.yul\":4659:4679   */\n      sub\n        /* \"#utility.yul\":4655:4656   */\n      0x00\n        /* \"#utility.yul\":4644:4653   */\n      dup4\n        /* \"#utility.yul\":4640:4657   */\n      add\n        /* \"#utility.yul\":4633:4680   */\n      mstore\n        /* \"#utility.yul\":4697:4828   */\n      tag_185\n        /* \"#utility.yul\":4823:4827   */\n      dup2\n        /* \"#utility.yul\":4697:4828   */\n      tag_122\n      jump\t// in\n    tag_185:\n        /* \"#utility.yul\":4689:4828   */\n      swap1\n      pop\n        /* \"#utility.yul\":4416:4835   */\n      swap2\n      swap1\n      pop\n      jump\t// out\n        /* \"#utility.yul\":4841:5017   */\n    tag_123:\n        /* \"#utility.yul\":4981:5009   */\n      0x496e76616c6964206f7267616e697a6174696f6e20696e646578000000000000\n        /* \"#utility.yul\":4977:4978   */\n      0x00\n        /* \"#utility.yul\":4969:4975   */\n      dup3\n        /* \"#utility.yul\":4965:4979   */\n      add\n        /* \"#utility.yul\":4958:5010   */\n      mstore\n        /* \"#utility.yul\":4841:5017   */\n      pop\n      jump\t// out\n        /* \"#utility.yul\":5023:5389   */\n    tag_124:\n        /* \"#utility.yul\":5165:5168   */\n      0x00\n        /* \"#utility.yul\":5186:5253   */\n      tag_188\n        /* \"#utility.yul\":5250:5252   */\n      0x1a\n        /* \"#utility.yul\":5245:5248   */\n      dup4\n        /* \"#utility.yul\":5186:5253   */\n      tag_120\n      jump\t// in\n    tag_188:\n        /* \"#utility.yul\":5179:5253   */\n      swap2\n      pop\n        /* \"#utility.yul\":5262:5355   */\n      tag_189\n        /* \"#utility.yul\":5351:5354   */\n      dup3\n        /* \"#utility.yul\":5262:5355   */\n      tag_123\n      jump\t// in\n    tag_189:\n        /* \"#utility.yul\":5380:5382   */\n      0x20\n        /* \"#utility.yul\":5375:5378   */\n      dup3\n        /* \"#utility.yul\":5371:5383   */\n      add\n        /* \"#utility.yul\":5364:5383   */\n      swap1\n      pop\n        /* \"#utility.yul\":5023:5389   */\n      swap2\n      swap1\n      pop\n      jump\t// out\n        /* \"#utility.yul\":5395:5814   */\n    tag_84:\n        /* \"#utility.yul\":5561:5565   */\n      0x00\n        /* \"#utility.yul\":5599:5601   */\n      0x20\n        /* \"#utility.yul\":5588:5597   */\n      dup3\n        /* \"#utility.yul\":5584:5602   */\n      add\n        /* \"#utility.yul\":5576:5602   */\n      swap1\n      pop\n        /* \"#utility.yul\":5648:5657   */\n      dup2\n        /* \"#utility.yul\":5642:5646   */\n      dup2\n        /* \"#utility.yul\":5638:5658   */\n      sub\n        /* \"#utility.yul\":5634:5635   */\n      0x00\n        /* \"#utility.yul\":5623:5632   */\n      dup4\n        /* \"#utility.yul\":5619:5636   */\n      add\n        /* \"#utility.yul\":5612:5659   */\n      mstore\n        /* \"#utility.yul\":5676:5807   */\n      tag_191\n        /* \"#utility.yul\":5802:5806   */\n      dup2\n        /* \"#utility.yul\":5676:5807   */\n      tag_124\n      jump\t// in\n    tag_191:\n        /* \"#utility.yul\":5668:5807   */\n      swap1\n      pop\n        /* \"#utility.yul\":5395:5814   */\n      swap2\n      swap1\n      pop\n      jump\t// out\n        /* \"#utility.yul\":5820:6000   */\n    tag_87:\n        /* \"#utility.yul\":5868:5945   */\n      0x4e487b7100000000000000000000000000000000000000000000000000000000\n        /* \"#utility.yul\":5865:5866   */\n      0x00\n        /* \"#utility.yul\":5858:5946   */\n      mstore\n        /* \"#utility.yul\":5965:5969   */\n      0x32\n        /* \"#utility.yul\":5962:5963   */\n      0x04\n        /* \"#utility.yul\":5955:5970   */\n      mstore\n        /* \"#utility.yul\":5989:5993   */\n      0x24\n        /* \"#utility.yul\":5986:5987   */\n      0x00\n        /* \"#utility.yul\":5979:5994   */\n      revert\n        /* \"#utility.yul\":6006:6066   */\n    tag_125:\n        /* \"#utility.yul\":6034:6037   */\n      0x00\n        /* \"#utility.yul\":6055:6060   */\n      dup2\n        /* \"#utility.yul\":6048:6060   */\n      swap1\n      pop\n        /* \"#utility.yul\":6006:6066   */\n      swap2\n      swap1\n      pop\n      jump\t// out\n        /* \"#utility.yul\":6072:6214   */\n    tag_126:\n        /* \"#utility.yul\":6122:6131   */\n      0x00\n        /* \"#utility.yul\":6155:6208   */\n      tag_195\n        /* \"#utility.yul\":6173:6207   */\n      tag_196\n        /* \"#utility.yul\":6182:6206   */\n      tag_197\n        /* \"#utility.yul\":6200:6205   */\n      dup5\n        /* \"#utility.yul\":6182:6206   */\n      tag_111\n      jump\t// in\n    tag_197:\n        /* \"#utility.yul\":6173:6207   */\n      tag_125\n      jump\t// in\n    tag_196:\n        /* \"#utility.yul\":6155:6208   */\n      tag_111\n      jump\t// in\n    tag_195:\n        /* \"#utility.yul\":6142:6208   */\n      swap1\n      pop\n        /* \"#utility.yul\":6072:6214   */\n      swap2\n      swap1\n      pop\n      jump\t// out\n        /* \"#utility.yul\":6220:6346   */\n    tag_127:\n        /* \"#utility.yul\":6270:6279   */\n      0x00\n        /* \"#utility.yul\":6303:6340   */\n      tag_199\n        /* \"#utility.yul\":6334:6339   */\n      dup3\n        /* \"#utility.yul\":6303:6340   */\n      tag_126\n      jump\t// in\n    tag_199:\n        /* \"#utility.yul\":6290:6340   */\n      swap1\n      pop\n        /* \"#utility.yul\":6220:6346   */\n      swap2\n      swap1\n      pop\n      jump\t// out\n        /* \"#utility.yul\":6352:6486   */\n    tag_128:\n        /* \"#utility.yul\":6410:6419   */\n      0x00\n        /* \"#utility.yul\":6443:6480   */\n      tag_201\n        /* \"#utility.yul\":6474:6479   */\n      dup3\n        /* \"#utility.yul\":6443:6480   */\n      tag_127\n      jump\t// in\n    tag_201:\n        /* \"#utility.yul\":6430:6480   */\n      swap1\n      pop\n        /* \"#utility.yul\":6352:6486   */\n      swap2\n      swap1\n      pop\n      jump\t// out\n        /* \"#utility.yul\":6492:6639   */\n    tag_129:\n        /* \"#utility.yul\":6587:6632   */\n      tag_203\n        /* \"#utility.yul\":6626:6631   */\n      dup2\n        /* \"#utility.yul\":6587:6632   */\n      tag_128\n      jump\t// in\n    tag_203:\n        /* \"#utility.yul\":6582:6585   */\n      dup3\n        /* \"#utility.yul\":6575:6633   */\n      mstore\n        /* \"#utility.yul\":6492:6639   */\n      pop\n      pop\n      jump\t// out\n        /* \"#utility.yul\":6645:7103   */\n    tag_92:\n        /* \"#utility.yul\":6802:6806   */\n      0x00\n        /* \"#utility.yul\":6840:6842   */\n      0x60\n        /* \"#utility.yul\":6829:6838   */\n      dup3\n        /* \"#utility.yul\":6825:6843   */\n      add\n        /* \"#utility.yul\":6817:6843   */\n      swap1\n      pop\n        /* \"#utility.yul\":6853:6924   */\n      tag_205\n        /* \"#utility.yul\":6921:6922   */\n      0x00\n        /* \"#utility.yul\":6910:6919   */\n      dup4\n        /* \"#utility.yul\":6906:6923   */\n      add\n        /* \"#utility.yul\":6897:6903   */\n      dup7\n        /* \"#utility.yul\":6853:6924   */\n      tag_116\n      jump\t// in\n    tag_205:\n        /* \"#utility.yul\":6934:7014   */\n      tag_206\n        /* \"#utility.yul\":7010:7012   */\n      0x20\n        /* \"#utility.yul\":6999:7008   */\n      dup4\n        /* \"#utility.yul\":6995:7013   */\n      add\n        /* \"#utility.yul\":6986:6992   */\n      dup6\n        /* \"#utility.yul\":6934:7014   */\n      tag_129\n      jump\t// in\n    tag_206:\n        /* \"#utility.yul\":7024:7096   */\n      tag_207\n        /* \"#utility.yul\":7092:7094   */\n      0x40\n        /* \"#utility.yul\":7081:7090   */\n      dup4\n        /* \"#utility.yul\":7077:7095   */\n      add\n        /* \"#utility.yul\":7068:7074   */\n      dup5\n        /* \"#utility.yul\":7024:7096   */\n      tag_107\n      jump\t// in\n    tag_207:\n        /* \"#utility.yul\":6645:7103   */\n      swap5\n      swap4\n      pop\n      pop\n      pop\n      pop\n      jump\t// out\n        /* \"#utility.yul\":7109:7340   */\n    tag_130:\n        /* \"#utility.yul\":7249:7283   */\n      0x4f6e6c7920746865206f776e65722063616e206164642063686172697479206f\n        /* \"#utility.yul\":7245:7246   */\n      0x00\n        /* \"#utility.yul\":7237:7243   */\n      dup3\n        /* \"#utility.yul\":7233:7247   */\n      add\n        /* \"#utility.yul\":7226:7284   */\n      mstore\n        /* \"#utility.yul\":7318:7332   */\n      0x7267616e697a6174696f6e730000000000000000000000000000000000000000\n        /* \"#utility.yul\":7313:7315   */\n      0x20\n        /* \"#utility.yul\":7305:7311   */\n      dup3\n        /* \"#utility.yul\":7301:7316   */\n      add\n        /* \"#utility.yul\":7294:7333   */\n      mstore\n        /* \"#utility.yul\":7109:7340   */\n      pop\n      jump\t// out\n        /* \"#utility.yul\":7346:7712   */\n    tag_131:\n        /* \"#utility.yul\":7488:7491   */\n      0x00\n        /* \"#utility.yul\":7509:7576   */\n      tag_210\n        /* \"#utility.yul\":7573:7575   */\n      0x2c\n        /* \"#utility.yul\":7568:7571   */\n      dup4\n        /* \"#utility.yul\":7509:7576   */\n      tag_120\n      jump\t// in\n    tag_210:\n        /* \"#utility.yul\":7502:7576   */\n      swap2\n      pop\n        /* \"#utility.yul\":7585:7678   */\n      tag_211\n        /* \"#utility.yul\":7674:7677   */\n      dup3\n        /* \"#utility.yul\":7585:7678   */\n      tag_130\n      jump\t// in\n    tag_211:\n        /* \"#utility.yul\":7703:7705   */\n      0x40\n        /* \"#utility.yul\":7698:7701   */\n      dup3\n        /* \"#utility.yul\":7694:7706   */\n      add\n        /* \"#utility.yul\":7687:7706   */\n      swap1\n      pop\n        /* \"#utility.yul\":7346:7712   */\n      swap2\n      swap1\n      pop\n      jump\t// out\n        /* \"#utility.yul\":7718:8137   */\n    tag_96:\n        /* \"#utility.yul\":7884:7888   */\n      0x00\n        /* \"#utility.yul\":7922:7924   */\n      0x20\n        /* \"#utility.yul\":7911:7920   */\n      dup3\n        /* \"#utility.yul\":7907:7925   */\n      add\n        /* \"#utility.yul\":7899:7925   */\n      swap1\n      pop\n        /* \"#utility.yul\":7971:7980   */\n      dup2\n        /* \"#utility.yul\":7965:7969   */\n      dup2\n        /* \"#utility.yul\":7961:7981   */\n      sub\n        /* \"#utility.yul\":7957:7958   */\n      0x00\n        /* \"#utility.yul\":7946:7955   */\n      dup4\n        /* \"#utility.yul\":7942:7959   */\n      add\n        /* \"#utility.yul\":7935:7982   */\n      mstore\n        /* \"#utility.yul\":7999:8130   */\n      tag_213\n        /* \"#utility.yul\":8125:8129   */\n      dup2\n        /* \"#utility.yul\":7999:8130   */\n      tag_131\n      jump\t// in\n    tag_213:\n        /* \"#utility.yul\":7991:8130   */\n      swap1\n      pop\n        /* \"#utility.yul\":7718:8137   */\n      swap2\n      swap1\n      pop\n      jump\t// out\n        /* \"#utility.yul\":8143:8369   */\n    tag_132:\n        /* \"#utility.yul\":8283:8317   */\n      0x446f6e6174696f6e20616d6f756e74206d757374206265206174206c65617374\n        /* \"#utility.yul\":8279:8280   */\n      0x00\n        /* \"#utility.yul\":8271:8277   */\n      dup3\n        /* \"#utility.yul\":8267:8281   */\n      add\n        /* \"#utility.yul\":8260:8318   */\n      mstore\n        /* \"#utility.yul\":8352:8361   */\n      0x20302e3030303100000000000000000000000000000000000000000000000000\n        /* \"#utility.yul\":8347:8349   */\n      0x20\n        /* \"#utility.yul\":8339:8345   */\n      dup3\n        /* \"#utility.yul\":8335:8350   */\n      add\n        /* \"#utility.yul\":8328:8362   */\n      mstore\n        /* \"#utility.yul\":8143:8369   */\n      pop\n      jump\t// out\n        /* \"#utility.yul\":8375:8741   */\n    tag_133:\n        /* \"#utility.yul\":8517:8520   */\n      0x00\n        /* \"#utility.yul\":8538:8605   */\n      tag_216\n        /* \"#utility.yul\":8602:8604   */\n      0x27\n        /* \"#utility.yul\":8597:8600   */\n      dup4\n        /* \"#utility.yul\":8538:8605   */\n      tag_120\n      jump\t// in\n    tag_216:\n        /* \"#utility.yul\":8531:8605   */\n      swap2\n      pop\n        /* \"#utility.yul\":8614:8707   */\n      tag_217\n        /* \"#utility.yul\":8703:8706   */\n      dup3\n        /* \"#utility.yul\":8614:8707   */\n      tag_132\n      jump\t// in\n    tag_217:\n        /* \"#utility.yul\":8732:8734   */\n      0x40\n        /* \"#utility.yul\":8727:8730   */\n      dup3\n        /* \"#utility.yul\":8723:8735   */\n      add\n        /* \"#utility.yul\":8716:8735   */\n      swap1\n      pop\n        /* \"#utility.yul\":8375:8741   */\n      swap2\n      swap1\n      pop\n      jump\t// out\n        /* \"#utility.yul\":8747:9166   */\n    tag_101:\n        /* \"#utility.yul\":8913:8917   */\n      0x00\n        /* \"#utility.yul\":8951:8953   */\n      0x20\n        /* \"#utility.yul\":8940:8949   */\n      dup3\n        /* \"#utility.yul\":8936:8954   */\n      add\n        /* \"#utility.yul\":8928:8954   */\n      swap1\n      pop\n        /* \"#utility.yul\":9000:9009   */\n      dup2\n        /* \"#utility.yul\":8994:8998   */\n      dup2\n        /* \"#utility.yul\":8990:9010   */\n      sub\n        /* \"#utility.yul\":8986:8987   */\n      0x00\n        /* \"#utility.yul\":8975:8984   */\n      dup4\n        /* \"#utility.yul\":8971:8988   */\n      add\n        /* \"#utility.yul\":8964:9011   */\n      mstore\n        /* \"#utility.yul\":9028:9159   */\n      tag_219\n        /* \"#utility.yul\":9154:9158   */\n      dup2\n        /* \"#utility.yul\":9028:9159   */\n      tag_133\n      jump\t// in\n    tag_219:\n        /* \"#utility.yul\":9020:9159   */\n      swap1\n      pop\n        /* \"#utility.yul\":8747:9166   */\n      swap2\n      swap1\n      pop\n      jump\t// out\n\n    auxdata: 0xa2646970667358221220ec9000c2610afc4938f2aef605777675e99b0732937c2e3366c879f2cce624a764736f6c63430008160033\n}\n",
				"bytecode": {
					"linkReferences": {},
					"object": "608060405234801561000f575f80fd5b50335f806101000a81548173ffffffffffffffffffffffffffffffffffffffff021916908373ffffffffffffffffffffffffffffffffffffffff160217905550600373829c7599f5ccf77c050e0046356fa9f71053d4fd908060018154018082558091505060019003905f5260205f20015f9091909190916101000a81548173ffffffffffffffffffffffffffffffffffffffff021916908373ffffffffffffffffffffffffffffffffffffffff1602179055506003732a6e3989f198debcdfb938b720817a1f2d987958908060018154018082558091505060019003905f5260205f20015f9091909190916101000a81548173ffffffffffffffffffffffffffffffffffffffff021916908373ffffffffffffffffffffffffffffffffffffffff16021790555060037303c75cd4b2aa25b848814d6abd44aa60b3fdab46908060018154018082558091505060019003905f5260205f20015f9091909190916101000a81548173ffffffffffffffffffffffffffffffffffffffff021916908373ffffffffffffffffffffffffffffffffffffffff1602179055506003737ab19cc3dc876d75e9cc0427ea0355b8600ae8b7908060018154018082558091505060019003905f5260205f20015f9091909190916101000a81548173ffffffffffffffffffffffffffffffffffffffff021916908373ffffffffffffffffffffffffffffffffffffffff160217905550610bb28061022c5f395ff3fe6080604052600436106100a6575f3560e01c806362cef33c1161006357806362cef33c146101bc57806379169f90146101e45780638da5cb5b1461020c578063b97bee7514610236578063d0e30db014610260578063f3fef3a31461026a576100a6565b806312065fe0146100aa57806330df47af146100d457806338cc4831146100f05780633ba1d7031461011a5780634abfa16314610156578063590791f214610192575b5f80fd5b3480156100b5575f80fd5b506100be610292565b6040516100cb9190610707565b60405180910390f35b6100ee60048036038101906100e9919061077e565b610299565b005b3480156100fb575f80fd5b5061010461033a565b60405161011191906107c9565b60405180910390f35b348015610125575f80fd5b50610140600480360381019061013b919061080c565b610341565b60405161014d9190610846565b60405180910390f35b348015610161575f80fd5b5061017c6004803603810190610177919061080c565b61037c565b60405161018991906107c9565b60405180910390f35b34801561019d575f80fd5b506101a66103b7565b6040516101b39190610707565b60405180910390f35b3480156101c7575f80fd5b506101e260048036038101906101dd919061080c565b6103d5565b005b3480156101ef575f80fd5b5061020a6004803603810190610205919061077e565b6104e3565b005b348015610217575f80fd5b506102206105d3565b60405161022d91906107c9565b60405180910390f35b348015610241575f80fd5b5061024a6105f6565b6040516102579190610707565b60405180910390f35b6102686105fc565b005b348015610275575f80fd5b50610290600480360381019061028b919061085f565b6106a7565b005b5f47905090565b343373ffffffffffffffffffffffffffffffffffffffff163110156102f3576040517f08c379a00000000000000000000000000000000000000000000000000000000081526004016102ea9061091d565b60405180910390fd5b8073ffffffffffffffffffffffffffffffffffffffff166108fc3490811502906040515f60405180830381858888f19350505050158015610336573d5f803e3d5ffd5b5050565b5f30905090565b60038181548110610350575f80fd5b905f5260205f20015f915054906101000a900473ffffffffffffffffffffffffffffffffffffffff1681565b6001818154811061038b575f80fd5b905f5260205f20015f915054906101000a900473ffffffffffffffffffffffffffffffffffffffff1681565b5f3373ffffffffffffffffffffffffffffffffffffffff1631905090565b600380549050811061041c576040517f08c379a000000000000000000000000000000000000000000000000000000000815260040161041390610985565b60405180910390fd5b5f60038281548110610431576104306109a3565b5b905f5260205f20015f9054906101000a900473ffffffffffffffffffffffffffffffffffffffff1690505f4790508173ffffffffffffffffffffffffffffffffffffffff166108fc8290811502906040515f60405180830381858888f193505050501580156104a2573d5f803e3d5ffd5b507f2201ba208c4911c272080234aab59a1c2a0dc0be34da59b1a1f388c7c303c6ca3383836040516104d693929190610a2b565b60405180910390a1505050565b5f8054906101000a900473ffffffffffffffffffffffffffffffffffffffff1673ffffffffffffffffffffffffffffffffffffffff163373ffffffffffffffffffffffffffffffffffffffff1614610570576040517f08c379a000000000000000000000000000000000000000000000000000000000815260040161056790610ad0565b60405180910390fd5b600381908060018154018082558091505060019003905f5260205f20015f9091909190916101000a81548173ffffffffffffffffffffffffffffffffffffffff021916908373ffffffffffffffffffffffffffffffffffffffff16021790555050565b5f8054906101000a900473ffffffffffffffffffffffffffffffffffffffff1681565b60025481565b655af3107a4000341015610645576040517f08c379a000000000000000000000000000000000000000000000000000000000815260040161063c90610b5e565b60405180910390fd5b600133908060018154018082558091505060019003905f5260205f20015f9091909190916101000a81548173ffffffffffffffffffffffffffffffffffffffff021916908373ffffffffffffffffffffffffffffffffffffffff160217905550565b8173ffffffffffffffffffffffffffffffffffffffff166108fc8290811502906040515f60405180830381858888f193505050501580156106ea573d5f803e3d5ffd5b505050565b5f819050919050565b610701816106ef565b82525050565b5f60208201905061071a5f8301846106f8565b92915050565b5f80fd5b5f73ffffffffffffffffffffffffffffffffffffffff82169050919050565b5f61074d82610724565b9050919050565b61075d81610743565b8114610767575f80fd5b50565b5f8135905061077881610754565b92915050565b5f6020828403121561079357610792610720565b5b5f6107a08482850161076a565b91505092915050565b5f6107b382610724565b9050919050565b6107c3816107a9565b82525050565b5f6020820190506107dc5f8301846107ba565b92915050565b6107eb816106ef565b81146107f5575f80fd5b50565b5f81359050610806816107e2565b92915050565b5f6020828403121561082157610820610720565b5b5f61082e848285016107f8565b91505092915050565b61084081610743565b82525050565b5f6020820190506108595f830184610837565b92915050565b5f806040838503121561087557610874610720565b5b5f6108828582860161076a565b9250506020610893858286016107f8565b9150509250929050565b5f82825260208201905092915050565b7f496e73756666696369656e742062616c616e636520746f20706572666f726d205f8201527f7472616e73616374696f6e000000000000000000000000000000000000000000602082015250565b5f610907602b8361089d565b9150610912826108ad565b604082019050919050565b5f6020820190508181035f830152610934816108fb565b9050919050565b7f496e76616c6964206f7267616e697a6174696f6e20696e6465780000000000005f82015250565b5f61096f601a8361089d565b915061097a8261093b565b602082019050919050565b5f6020820190508181035f83015261099c81610963565b9050919050565b7f4e487b71000000000000000000000000000000000000000000000000000000005f52603260045260245ffd5b5f819050919050565b5f6109f36109ee6109e984610724565b6109d0565b610724565b9050919050565b5f610a04826109d9565b9050919050565b5f610a15826109fa565b9050919050565b610a2581610a0b565b82525050565b5f606082019050610a3e5f8301866107ba565b610a4b6020830185610a1c565b610a5860408301846106f8565b949350505050565b7f4f6e6c7920746865206f776e65722063616e206164642063686172697479206f5f8201527f7267616e697a6174696f6e730000000000000000000000000000000000000000602082015250565b5f610aba602c8361089d565b9150610ac582610a60565b604082019050919050565b5f6020820190508181035f830152610ae781610aae565b9050919050565b7f446f6e6174696f6e20616d6f756e74206d757374206265206174206c656173745f8201527f20302e3030303100000000000000000000000000000000000000000000000000602082015250565b5f610b4860278361089d565b9150610b5382610aee565b604082019050919050565b5f6020820190508181035f830152610b7581610b3c565b905091905056fea2646970667358221220ec9000c2610afc4938f2aef605777675e99b0732937c2e3366c879f2cce624a764736f6c63430008160033",
					"opcodes": "PUSH1 0x80 PUSH1 0x40 MSTORE CALLVALUE DUP1 ISZERO PUSH2 0xF JUMPI PUSH0 DUP1 REVERT JUMPDEST POP CALLER PUSH0 DUP1 PUSH2 0x100 EXP DUP2 SLOAD DUP2 PUSH20 0xFFFFFFFFFFFFFFFFFFFFFFFFFFFFFFFFFFFFFFFF MUL NOT AND SWAP1 DUP4 PUSH20 0xFFFFFFFFFFFFFFFFFFFFFFFFFFFFFFFFFFFFFFFF AND MUL OR SWAP1 SSTORE POP PUSH1 0x3 PUSH20 0x829C7599F5CCF77C050E0046356FA9F71053D4FD SWAP1 DUP1 PUSH1 0x1 DUP2 SLOAD ADD DUP1 DUP3 SSTORE DUP1 SWAP2 POP POP PUSH1 0x1 SWAP1 SUB SWAP1 PUSH0 MSTORE PUSH1 0x20 PUSH0 KECCAK256 ADD PUSH0 SWAP1 SWAP2 SWAP1 SWAP2 SWAP1 SWAP2 PUSH2 0x100 EXP DUP2 SLOAD DUP2 PUSH20 0xFFFFFFFFFFFFFFFFFFFFFFFFFFFFFFFFFFFFFFFF MUL NOT AND SWAP1 DUP4 PUSH20 0xFFFFFFFFFFFFFFFFFFFFFFFFFFFFFFFFFFFFFFFF AND MUL OR SWAP1 SSTORE POP PUSH1 0x3 PUSH20 0x2A6E3989F198DEBCDFB938B720817A1F2D987958 SWAP1 DUP1 PUSH1 0x1 DUP2 SLOAD ADD DUP1 DUP3 SSTORE DUP1 SWAP2 POP POP PUSH1 0x1 SWAP1 SUB SWAP1 PUSH0 MSTORE PUSH1 0x20 PUSH0 KECCAK256 ADD PUSH0 SWAP1 SWAP2 SWAP1 SWAP2 SWAP1 SWAP2 PUSH2 0x100 EXP DUP2 SLOAD DUP2 PUSH20 0xFFFFFFFFFFFFFFFFFFFFFFFFFFFFFFFFFFFFFFFF MUL NOT AND SWAP1 DUP4 PUSH20 0xFFFFFFFFFFFFFFFFFFFFFFFFFFFFFFFFFFFFFFFF AND MUL OR SWAP1 SSTORE POP PUSH1 0x3 PUSH20 0x3C75CD4B2AA25B848814D6ABD44AA60B3FDAB46 SWAP1 DUP1 PUSH1 0x1 DUP2 SLOAD ADD DUP1 DUP3 SSTORE DUP1 SWAP2 POP POP PUSH1 0x1 SWAP1 SUB SWAP1 PUSH0 MSTORE PUSH1 0x20 PUSH0 KECCAK256 ADD PUSH0 SWAP1 SWAP2 SWAP1 SWAP2 SWAP1 SWAP2 PUSH2 0x100 EXP DUP2 SLOAD DUP2 PUSH20 0xFFFFFFFFFFFFFFFFFFFFFFFFFFFFFFFFFFFFFFFF MUL NOT AND SWAP1 DUP4 PUSH20 0xFFFFFFFFFFFFFFFFFFFFFFFFFFFFFFFFFFFFFFFF AND MUL OR SWAP1 SSTORE POP PUSH1 0x3 PUSH20 0x7AB19CC3DC876D75E9CC0427EA0355B8600AE8B7 SWAP1 DUP1 PUSH1 0x1 DUP2 SLOAD ADD DUP1 DUP3 SSTORE DUP1 SWAP2 POP POP PUSH1 0x1 SWAP1 SUB SWAP1 PUSH0 MSTORE PUSH1 0x20 PUSH0 KECCAK256 ADD PUSH0 SWAP1 SWAP2 SWAP1 SWAP2 SWAP1 SWAP2 PUSH2 0x100 EXP DUP2 SLOAD DUP2 PUSH20 0xFFFFFFFFFFFFFFFFFFFFFFFFFFFFFFFFFFFFFFFF MUL NOT AND SWAP1 DUP4 PUSH20 0xFFFFFFFFFFFFFFFFFFFFFFFFFFFFFFFFFFFFFFFF AND MUL OR SWAP1 SSTORE POP PUSH2 0xBB2 DUP1 PUSH2 0x22C PUSH0 CODECOPY PUSH0 RETURN INVALID PUSH1 0x80 PUSH1 0x40 MSTORE PUSH1 0x4 CALLDATASIZE LT PUSH2 0xA6 JUMPI PUSH0 CALLDATALOAD PUSH1 0xE0 SHR DUP1 PUSH4 0x62CEF33C GT PUSH2 0x63 JUMPI DUP1 PUSH4 0x62CEF33C EQ PUSH2 0x1BC JUMPI DUP1 PUSH4 0x79169F90 EQ PUSH2 0x1E4 JUMPI DUP1 PUSH4 0x8DA5CB5B EQ PUSH2 0x20C JUMPI DUP1 PUSH4 0xB97BEE75 EQ PUSH2 0x236 JUMPI DUP1 PUSH4 0xD0E30DB0 EQ PUSH2 0x260 JUMPI DUP1 PUSH4 0xF3FEF3A3 EQ PUSH2 0x26A JUMPI PUSH2 0xA6 JUMP JUMPDEST DUP1 PUSH4 0x12065FE0 EQ PUSH2 0xAA JUMPI DUP1 PUSH4 0x30DF47AF EQ PUSH2 0xD4 JUMPI DUP1 PUSH4 0x38CC4831 EQ PUSH2 0xF0 JUMPI DUP1 PUSH4 0x3BA1D703 EQ PUSH2 0x11A JUMPI DUP1 PUSH4 0x4ABFA163 EQ PUSH2 0x156 JUMPI DUP1 PUSH4 0x590791F2 EQ PUSH2 0x192 JUMPI JUMPDEST PUSH0 DUP1 REVERT JUMPDEST CALLVALUE DUP1 ISZERO PUSH2 0xB5 JUMPI PUSH0 DUP1 REVERT JUMPDEST POP PUSH2 0xBE PUSH2 0x292 JUMP JUMPDEST PUSH1 0x40 MLOAD PUSH2 0xCB SWAP2 SWAP1 PUSH2 0x707 JUMP JUMPDEST PUSH1 0x40 MLOAD DUP1 SWAP2 SUB SWAP1 RETURN JUMPDEST PUSH2 0xEE PUSH1 0x4 DUP1 CALLDATASIZE SUB DUP2 ADD SWAP1 PUSH2 0xE9 SWAP2 SWAP1 PUSH2 0x77E JUMP JUMPDEST PUSH2 0x299 JUMP JUMPDEST STOP JUMPDEST CALLVALUE DUP1 ISZERO PUSH2 0xFB JUMPI PUSH0 DUP1 REVERT JUMPDEST POP PUSH2 0x104 PUSH2 0x33A JUMP JUMPDEST PUSH1 0x40 MLOAD PUSH2 0x111 SWAP2 SWAP1 PUSH2 0x7C9 JUMP JUMPDEST PUSH1 0x40 MLOAD DUP1 SWAP2 SUB SWAP1 RETURN JUMPDEST CALLVALUE DUP1 ISZERO PUSH2 0x125 JUMPI PUSH0 DUP1 REVERT JUMPDEST POP PUSH2 0x140 PUSH1 0x4 DUP1 CALLDATASIZE SUB DUP2 ADD SWAP1 PUSH2 0x13B SWAP2 SWAP1 PUSH2 0x80C JUMP JUMPDEST PUSH2 0x341 JUMP JUMPDEST PUSH1 0x40 MLOAD PUSH2 0x14D SWAP2 SWAP1 PUSH2 0x846 JUMP JUMPDEST PUSH1 0x40 MLOAD DUP1 SWAP2 SUB SWAP1 RETURN JUMPDEST CALLVALUE DUP1 ISZERO PUSH2 0x161 JUMPI PUSH0 DUP1 REVERT JUMPDEST POP PUSH2 0x17C PUSH1 0x4 DUP1 CALLDATASIZE SUB DUP2 ADD SWAP1 PUSH2 0x177 SWAP2 SWAP1 PUSH2 0x80C JUMP JUMPDEST PUSH2 0x37C JUMP JUMPDEST PUSH1 0x40 MLOAD PUSH2 0x189 SWAP2 SWAP1 PUSH2 0x7C9 JUMP JUMPDEST PUSH1 0x40 MLOAD DUP1 SWAP2 SUB SWAP1 RETURN JUMPDEST CALLVALUE DUP1 ISZERO PUSH2 0x19D JUMPI PUSH0 DUP1 REVERT JUMPDEST POP PUSH2 0x1A6 PUSH2 0x3B7 JUMP JUMPDEST PUSH1 0x40 MLOAD PUSH2 0x1B3 SWAP2 SWAP1 PUSH2 0x707 JUMP JUMPDEST PUSH1 0x40 MLOAD DUP1 SWAP2 SUB SWAP1 RETURN JUMPDEST CALLVALUE DUP1 ISZERO PUSH2 0x1C7 JUMPI PUSH0 DUP1 REVERT JUMPDEST POP PUSH2 0x1E2 PUSH1 0x4 DUP1 CALLDATASIZE SUB DUP2 ADD SWAP1 PUSH2 0x1DD SWAP2 SWAP1 PUSH2 0x80C JUMP JUMPDEST PUSH2 0x3D5 JUMP JUMPDEST STOP JUMPDEST CALLVALUE DUP1 ISZERO PUSH2 0x1EF JUMPI PUSH0 DUP1 REVERT JUMPDEST POP PUSH2 0x20A PUSH1 0x4 DUP1 CALLDATASIZE SUB DUP2 ADD SWAP1 PUSH2 0x205 SWAP2 SWAP1 PUSH2 0x77E JUMP JUMPDEST PUSH2 0x4E3 JUMP JUMPDEST STOP JUMPDEST CALLVALUE DUP1 ISZERO PUSH2 0x217 JUMPI PUSH0 DUP1 REVERT JUMPDEST POP PUSH2 0x220 PUSH2 0x5D3 JUMP JUMPDEST PUSH1 0x40 MLOAD PUSH2 0x22D SWAP2 SWAP1 PUSH2 0x7C9 JUMP JUMPDEST PUSH1 0x40 MLOAD DUP1 SWAP2 SUB SWAP1 RETURN JUMPDEST CALLVALUE DUP1 ISZERO PUSH2 0x241 JUMPI PUSH0 DUP1 REVERT JUMPDEST POP PUSH2 0x24A PUSH2 0x5F6 JUMP JUMPDEST PUSH1 0x40 MLOAD PUSH2 0x257 SWAP2 SWAP1 PUSH2 0x707 JUMP JUMPDEST PUSH1 0x40 MLOAD DUP1 SWAP2 SUB SWAP1 RETURN JUMPDEST PUSH2 0x268 PUSH2 0x5FC JUMP JUMPDEST STOP JUMPDEST CALLVALUE DUP1 ISZERO PUSH2 0x275 JUMPI PUSH0 DUP1 REVERT JUMPDEST POP PUSH2 0x290 PUSH1 0x4 DUP1 CALLDATASIZE SUB DUP2 ADD SWAP1 PUSH2 0x28B SWAP2 SWAP1 PUSH2 0x85F JUMP JUMPDEST PUSH2 0x6A7 JUMP JUMPDEST STOP JUMPDEST PUSH0 SELFBALANCE SWAP1 POP SWAP1 JUMP JUMPDEST CALLVALUE CALLER PUSH20 0xFFFFFFFFFFFFFFFFFFFFFFFFFFFFFFFFFFFFFFFF AND BALANCE LT ISZERO PUSH2 0x2F3 JUMPI PUSH1 0x40 MLOAD PUSH32 0x8C379A000000000000000000000000000000000000000000000000000000000 DUP2 MSTORE PUSH1 0x4 ADD PUSH2 0x2EA SWAP1 PUSH2 0x91D JUMP JUMPDEST PUSH1 0x40 MLOAD DUP1 SWAP2 SUB SWAP1 REVERT JUMPDEST DUP1 PUSH20 0xFFFFFFFFFFFFFFFFFFFFFFFFFFFFFFFFFFFFFFFF AND PUSH2 0x8FC CALLVALUE SWAP1 DUP2 ISZERO MUL SWAP1 PUSH1 0x40 MLOAD PUSH0 PUSH1 0x40 MLOAD DUP1 DUP4 SUB DUP2 DUP6 DUP9 DUP9 CALL SWAP4 POP POP POP POP ISZERO DUP1 ISZERO PUSH2 0x336 JUMPI RETURNDATASIZE PUSH0 DUP1 RETURNDATACOPY RETURNDATASIZE PUSH0 REVERT JUMPDEST POP POP JUMP JUMPDEST PUSH0 ADDRESS SWAP1 POP SWAP1 JUMP JUMPDEST PUSH1 0x3 DUP2 DUP2 SLOAD DUP2 LT PUSH2 0x350 JUMPI PUSH0 DUP1 REVERT JUMPDEST SWAP1 PUSH0 MSTORE PUSH1 0x20 PUSH0 KECCAK256 ADD PUSH0 SWAP2 POP SLOAD SWAP1 PUSH2 0x100 EXP SWAP1 DIV PUSH20 0xFFFFFFFFFFFFFFFFFFFFFFFFFFFFFFFFFFFFFFFF AND DUP2 JUMP JUMPDEST PUSH1 0x1 DUP2 DUP2 SLOAD DUP2 LT PUSH2 0x38B JUMPI PUSH0 DUP1 REVERT JUMPDEST SWAP1 PUSH0 MSTORE PUSH1 0x20 PUSH0 KECCAK256 ADD PUSH0 SWAP2 POP SLOAD SWAP1 PUSH2 0x100 EXP SWAP1 DIV PUSH20 0xFFFFFFFFFFFFFFFFFFFFFFFFFFFFFFFFFFFFFFFF AND DUP2 JUMP JUMPDEST PUSH0 CALLER PUSH20 0xFFFFFFFFFFFFFFFFFFFFFFFFFFFFFFFFFFFFFFFF AND BALANCE SWAP1 POP SWAP1 JUMP JUMPDEST PUSH1 0x3 DUP1 SLOAD SWAP1 POP DUP2 LT PUSH2 0x41C JUMPI PUSH1 0x40 MLOAD PUSH32 0x8C379A000000000000000000000000000000000000000000000000000000000 DUP2 MSTORE PUSH1 0x4 ADD PUSH2 0x413 SWAP1 PUSH2 0x985 JUMP JUMPDEST PUSH1 0x40 MLOAD DUP1 SWAP2 SUB SWAP1 REVERT JUMPDEST PUSH0 PUSH1 0x3 DUP3 DUP2 SLOAD DUP2 LT PUSH2 0x431 JUMPI PUSH2 0x430 PUSH2 0x9A3 JUMP JUMPDEST JUMPDEST SWAP1 PUSH0 MSTORE PUSH1 0x20 PUSH0 KECCAK256 ADD PUSH0 SWAP1 SLOAD SWAP1 PUSH2 0x100 EXP SWAP1 DIV PUSH20 0xFFFFFFFFFFFFFFFFFFFFFFFFFFFFFFFFFFFFFFFF AND SWAP1 POP PUSH0 SELFBALANCE SWAP1 POP DUP2 PUSH20 0xFFFFFFFFFFFFFFFFFFFFFFFFFFFFFFFFFFFFFFFF AND PUSH2 0x8FC DUP3 SWAP1 DUP2 ISZERO MUL SWAP1 PUSH1 0x40 MLOAD PUSH0 PUSH1 0x40 MLOAD DUP1 DUP4 SUB DUP2 DUP6 DUP9 DUP9 CALL SWAP4 POP POP POP POP ISZERO DUP1 ISZERO PUSH2 0x4A2 JUMPI RETURNDATASIZE PUSH0 DUP1 RETURNDATACOPY RETURNDATASIZE PUSH0 REVERT JUMPDEST POP PUSH32 0x2201BA208C4911C272080234AAB59A1C2A0DC0BE34DA59B1A1F388C7C303C6CA CALLER DUP4 DUP4 PUSH1 0x40 MLOAD PUSH2 0x4D6 SWAP4 SWAP3 SWAP2 SWAP1 PUSH2 0xA2B JUMP JUMPDEST PUSH1 0x40 MLOAD DUP1 SWAP2 SUB SWAP1 LOG1 POP POP POP JUMP JUMPDEST PUSH0 DUP1 SLOAD SWAP1 PUSH2 0x100 EXP SWAP1 DIV PUSH20 0xFFFFFFFFFFFFFFFFFFFFFFFFFFFFFFFFFFFFFFFF AND PUSH20 0xFFFFFFFFFFFFFFFFFFFFFFFFFFFFFFFFFFFFFFFF AND CALLER PUSH20 0xFFFFFFFFFFFFFFFFFFFFFFFFFFFFFFFFFFFFFFFF AND EQ PUSH2 0x570 JUMPI PUSH1 0x40 MLOAD PUSH32 0x8C379A000000000000000000000000000000000000000000000000000000000 DUP2 MSTORE PUSH1 0x4 ADD PUSH2 0x567 SWAP1 PUSH2 0xAD0 JUMP JUMPDEST PUSH1 0x40 MLOAD DUP1 SWAP2 SUB SWAP1 REVERT JUMPDEST PUSH1 0x3 DUP2 SWAP1 DUP1 PUSH1 0x1 DUP2 SLOAD ADD DUP1 DUP3 SSTORE DUP1 SWAP2 POP POP PUSH1 0x1 SWAP1 SUB SWAP1 PUSH0 MSTORE PUSH1 0x20 PUSH0 KECCAK256 ADD PUSH0 SWAP1 SWAP2 SWAP1 SWAP2 SWAP1 SWAP2 PUSH2 0x100 EXP DUP2 SLOAD DUP2 PUSH20 0xFFFFFFFFFFFFFFFFFFFFFFFFFFFFFFFFFFFFFFFF MUL NOT AND SWAP1 DUP4 PUSH20 0xFFFFFFFFFFFFFFFFFFFFFFFFFFFFFFFFFFFFFFFF AND MUL OR SWAP1 SSTORE POP POP JUMP JUMPDEST PUSH0 DUP1 SLOAD SWAP1 PUSH2 0x100 EXP SWAP1 DIV PUSH20 0xFFFFFFFFFFFFFFFFFFFFFFFFFFFFFFFFFFFFFFFF AND DUP2 JUMP JUMPDEST PUSH1 0x2 SLOAD DUP2 JUMP JUMPDEST PUSH6 0x5AF3107A4000 CALLVALUE LT ISZERO PUSH2 0x645 JUMPI PUSH1 0x40 MLOAD PUSH32 0x8C379A000000000000000000000000000000000000000000000000000000000 DUP2 MSTORE PUSH1 0x4 ADD PUSH2 0x63C SWAP1 PUSH2 0xB5E JUMP JUMPDEST PUSH1 0x40 MLOAD DUP1 SWAP2 SUB SWAP1 REVERT JUMPDEST PUSH1 0x1 CALLER SWAP1 DUP1 PUSH1 0x1 DUP2 SLOAD ADD DUP1 DUP3 SSTORE DUP1 SWAP2 POP POP PUSH1 0x1 SWAP1 SUB SWAP1 PUSH0 MSTORE PUSH1 0x20 PUSH0 KECCAK256 ADD PUSH0 SWAP1 SWAP2 SWAP1 SWAP2 SWAP1 SWAP2 PUSH2 0x100 EXP DUP2 SLOAD DUP2 PUSH20 0xFFFFFFFFFFFFFFFFFFFFFFFFFFFFFFFFFFFFFFFF MUL NOT AND SWAP1 DUP4 PUSH20 0xFFFFFFFFFFFFFFFFFFFFFFFFFFFFFFFFFFFFFFFF AND MUL OR SWAP1 SSTORE POP JUMP JUMPDEST DUP2 PUSH20 0xFFFFFFFFFFFFFFFFFFFFFFFFFFFFFFFFFFFFFFFF AND PUSH2 0x8FC DUP3 SWAP1 DUP2 ISZERO MUL SWAP1 PUSH1 0x40 MLOAD PUSH0 PUSH1 0x40 MLOAD DUP1 DUP4 SUB DUP2 DUP6 DUP9 DUP9 CALL SWAP4 POP POP POP POP ISZERO DUP1 ISZERO PUSH2 0x6EA JUMPI RETURNDATASIZE PUSH0 DUP1 RETURNDATACOPY RETURNDATASIZE PUSH0 REVERT JUMPDEST POP POP POP JUMP JUMPDEST PUSH0 DUP2 SWAP1 POP SWAP2 SWAP1 POP JUMP JUMPDEST PUSH2 0x701 DUP2 PUSH2 0x6EF JUMP JUMPDEST DUP3 MSTORE POP POP JUMP JUMPDEST PUSH0 PUSH1 0x20 DUP3 ADD SWAP1 POP PUSH2 0x71A PUSH0 DUP4 ADD DUP5 PUSH2 0x6F8 JUMP JUMPDEST SWAP3 SWAP2 POP POP JUMP JUMPDEST PUSH0 DUP1 REVERT JUMPDEST PUSH0 PUSH20 0xFFFFFFFFFFFFFFFFFFFFFFFFFFFFFFFFFFFFFFFF DUP3 AND SWAP1 POP SWAP2 SWAP1 POP JUMP JUMPDEST PUSH0 PUSH2 0x74D DUP3 PUSH2 0x724 JUMP JUMPDEST SWAP1 POP SWAP2 SWAP1 POP JUMP JUMPDEST PUSH2 0x75D DUP2 PUSH2 0x743 JUMP JUMPDEST DUP2 EQ PUSH2 0x767 JUMPI PUSH0 DUP1 REVERT JUMPDEST POP JUMP JUMPDEST PUSH0 DUP2 CALLDATALOAD SWAP1 POP PUSH2 0x778 DUP2 PUSH2 0x754 JUMP JUMPDEST SWAP3 SWAP2 POP POP JUMP JUMPDEST PUSH0 PUSH1 0x20 DUP3 DUP5 SUB SLT ISZERO PUSH2 0x793 JUMPI PUSH2 0x792 PUSH2 0x720 JUMP JUMPDEST JUMPDEST PUSH0 PUSH2 0x7A0 DUP5 DUP3 DUP6 ADD PUSH2 0x76A JUMP JUMPDEST SWAP2 POP POP SWAP3 SWAP2 POP POP JUMP JUMPDEST PUSH0 PUSH2 0x7B3 DUP3 PUSH2 0x724 JUMP JUMPDEST SWAP1 POP SWAP2 SWAP1 POP JUMP JUMPDEST PUSH2 0x7C3 DUP2 PUSH2 0x7A9 JUMP JUMPDEST DUP3 MSTORE POP POP JUMP JUMPDEST PUSH0 PUSH1 0x20 DUP3 ADD SWAP1 POP PUSH2 0x7DC PUSH0 DUP4 ADD DUP5 PUSH2 0x7BA JUMP JUMPDEST SWAP3 SWAP2 POP POP JUMP JUMPDEST PUSH2 0x7EB DUP2 PUSH2 0x6EF JUMP JUMPDEST DUP2 EQ PUSH2 0x7F5 JUMPI PUSH0 DUP1 REVERT JUMPDEST POP JUMP JUMPDEST PUSH0 DUP2 CALLDATALOAD SWAP1 POP PUSH2 0x806 DUP2 PUSH2 0x7E2 JUMP JUMPDEST SWAP3 SWAP2 POP POP JUMP JUMPDEST PUSH0 PUSH1 0x20 DUP3 DUP5 SUB SLT ISZERO PUSH2 0x821 JUMPI PUSH2 0x820 PUSH2 0x720 JUMP JUMPDEST JUMPDEST PUSH0 PUSH2 0x82E DUP5 DUP3 DUP6 ADD PUSH2 0x7F8 JUMP JUMPDEST SWAP2 POP POP SWAP3 SWAP2 POP POP JUMP JUMPDEST PUSH2 0x840 DUP2 PUSH2 0x743 JUMP JUMPDEST DUP3 MSTORE POP POP JUMP JUMPDEST PUSH0 PUSH1 0x20 DUP3 ADD SWAP1 POP PUSH2 0x859 PUSH0 DUP4 ADD DUP5 PUSH2 0x837 JUMP JUMPDEST SWAP3 SWAP2 POP POP JUMP JUMPDEST PUSH0 DUP1 PUSH1 0x40 DUP4 DUP6 SUB SLT ISZERO PUSH2 0x875 JUMPI PUSH2 0x874 PUSH2 0x720 JUMP JUMPDEST JUMPDEST PUSH0 PUSH2 0x882 DUP6 DUP3 DUP7 ADD PUSH2 0x76A JUMP JUMPDEST SWAP3 POP POP PUSH1 0x20 PUSH2 0x893 DUP6 DUP3 DUP7 ADD PUSH2 0x7F8 JUMP JUMPDEST SWAP2 POP POP SWAP3 POP SWAP3 SWAP1 POP JUMP JUMPDEST PUSH0 DUP3 DUP3 MSTORE PUSH1 0x20 DUP3 ADD SWAP1 POP SWAP3 SWAP2 POP POP JUMP JUMPDEST PUSH32 0x496E73756666696369656E742062616C616E636520746F20706572666F726D20 PUSH0 DUP3 ADD MSTORE PUSH32 0x7472616E73616374696F6E000000000000000000000000000000000000000000 PUSH1 0x20 DUP3 ADD MSTORE POP JUMP JUMPDEST PUSH0 PUSH2 0x907 PUSH1 0x2B DUP4 PUSH2 0x89D JUMP JUMPDEST SWAP2 POP PUSH2 0x912 DUP3 PUSH2 0x8AD JUMP JUMPDEST PUSH1 0x40 DUP3 ADD SWAP1 POP SWAP2 SWAP1 POP JUMP JUMPDEST PUSH0 PUSH1 0x20 DUP3 ADD SWAP1 POP DUP2 DUP2 SUB PUSH0 DUP4 ADD MSTORE PUSH2 0x934 DUP2 PUSH2 0x8FB JUMP JUMPDEST SWAP1 POP SWAP2 SWAP1 POP JUMP JUMPDEST PUSH32 0x496E76616C6964206F7267616E697A6174696F6E20696E646578000000000000 PUSH0 DUP3 ADD MSTORE POP JUMP JUMPDEST PUSH0 PUSH2 0x96F PUSH1 0x1A DUP4 PUSH2 0x89D JUMP JUMPDEST SWAP2 POP PUSH2 0x97A DUP3 PUSH2 0x93B JUMP JUMPDEST PUSH1 0x20 DUP3 ADD SWAP1 POP SWAP2 SWAP1 POP JUMP JUMPDEST PUSH0 PUSH1 0x20 DUP3 ADD SWAP1 POP DUP2 DUP2 SUB PUSH0 DUP4 ADD MSTORE PUSH2 0x99C DUP2 PUSH2 0x963 JUMP JUMPDEST SWAP1 POP SWAP2 SWAP1 POP JUMP JUMPDEST PUSH32 0x4E487B7100000000000000000000000000000000000000000000000000000000 PUSH0 MSTORE PUSH1 0x32 PUSH1 0x4 MSTORE PUSH1 0x24 PUSH0 REVERT JUMPDEST PUSH0 DUP2 SWAP1 POP SWAP2 SWAP1 POP JUMP JUMPDEST PUSH0 PUSH2 0x9F3 PUSH2 0x9EE PUSH2 0x9E9 DUP5 PUSH2 0x724 JUMP JUMPDEST PUSH2 0x9D0 JUMP JUMPDEST PUSH2 0x724 JUMP JUMPDEST SWAP1 POP SWAP2 SWAP1 POP JUMP JUMPDEST PUSH0 PUSH2 0xA04 DUP3 PUSH2 0x9D9 JUMP JUMPDEST SWAP1 POP SWAP2 SWAP1 POP JUMP JUMPDEST PUSH0 PUSH2 0xA15 DUP3 PUSH2 0x9FA JUMP JUMPDEST SWAP1 POP SWAP2 SWAP1 POP JUMP JUMPDEST PUSH2 0xA25 DUP2 PUSH2 0xA0B JUMP JUMPDEST DUP3 MSTORE POP POP JUMP JUMPDEST PUSH0 PUSH1 0x60 DUP3 ADD SWAP1 POP PUSH2 0xA3E PUSH0 DUP4 ADD DUP7 PUSH2 0x7BA JUMP JUMPDEST PUSH2 0xA4B PUSH1 0x20 DUP4 ADD DUP6 PUSH2 0xA1C JUMP JUMPDEST PUSH2 0xA58 PUSH1 0x40 DUP4 ADD DUP5 PUSH2 0x6F8 JUMP JUMPDEST SWAP5 SWAP4 POP POP POP POP JUMP JUMPDEST PUSH32 0x4F6E6C7920746865206F776E65722063616E206164642063686172697479206F PUSH0 DUP3 ADD MSTORE PUSH32 0x7267616E697A6174696F6E730000000000000000000000000000000000000000 PUSH1 0x20 DUP3 ADD MSTORE POP JUMP JUMPDEST PUSH0 PUSH2 0xABA PUSH1 0x2C DUP4 PUSH2 0x89D JUMP JUMPDEST SWAP2 POP PUSH2 0xAC5 DUP3 PUSH2 0xA60 JUMP JUMPDEST PUSH1 0x40 DUP3 ADD SWAP1 POP SWAP2 SWAP1 POP JUMP JUMPDEST PUSH0 PUSH1 0x20 DUP3 ADD SWAP1 POP DUP2 DUP2 SUB PUSH0 DUP4 ADD MSTORE PUSH2 0xAE7 DUP2 PUSH2 0xAAE JUMP JUMPDEST SWAP1 POP SWAP2 SWAP1 POP JUMP JUMPDEST PUSH32 0x446F6E6174696F6E20616D6F756E74206D757374206265206174206C65617374 PUSH0 DUP3 ADD MSTORE PUSH32 0x20302E3030303100000000000000000000000000000000000000000000000000 PUSH1 0x20 DUP3 ADD MSTORE POP JUMP JUMPDEST PUSH0 PUSH2 0xB48 PUSH1 0x27 DUP4 PUSH2 0x89D JUMP JUMPDEST SWAP2 POP PUSH2 0xB53 DUP3 PUSH2 0xAEE JUMP JUMPDEST PUSH1 0x40 DUP3 ADD SWAP1 POP SWAP2 SWAP1 POP JUMP JUMPDEST PUSH0 PUSH1 0x20 DUP3 ADD SWAP1 POP DUP2 DUP2 SUB PUSH0 DUP4 ADD MSTORE PUSH2 0xB75 DUP2 PUSH2 0xB3C JUMP JUMPDEST SWAP1 POP SWAP2 SWAP1 POP JUMP INVALID LOG2 PUSH5 0x6970667358 0x22 SLT KECCAK256 0xEC SWAP1 STOP 0xC2 PUSH2 0xAFC 0x49 CODESIZE CALLCODE 0xAE 0xF6 SDIV PUSH24 0x7675E99B0732937C2E3366C879F2CCE624A764736F6C6343 STOP ADDMOD AND STOP CALLER "
				},
				"gasEstimates": {
					"creation": {
						"codeDepositCost": "598800",
						"executionCost": "219199",
						"totalCost": "817999"
					},
					"external": {
						"addCharityOrganization(address)": "51213",
						"charity_org(uint256)": "5011",
						"deposit()": "48807",
						"donors(uint256)": "5033",
						"getAddress()": "424",
						"getBalance()": "335",
						"getOwnerBalance()": "3048",
						"owner()": "2549",
						"selectedOrgIndex()": "2491",
						"transferEth(address)": "infinite",
						"transferToCharity(uint256)": "infinite",
						"withdraw(address,uint256)": "infinite"
					}
				},
				"methodIdentifiers": {
					"addCharityOrganization(address)": "79169f90",
					"charity_org(uint256)": "3ba1d703",
					"deposit()": "d0e30db0",
					"donors(uint256)": "4abfa163",
					"getAddress()": "38cc4831",
					"getBalance()": "12065fe0",
					"getOwnerBalance()": "590791f2",
					"owner()": "8da5cb5b",
					"selectedOrgIndex()": "b97bee75",
					"transferEth(address)": "30df47af",
					"transferToCharity(uint256)": "62cef33c",
					"withdraw(address,uint256)": "f3fef3a3"
				}
			},
			"storageLayout": {
				"storage": [
					{
						"astId": 3,
						"contract": "ProjectBlockchain.sol:DonationTracking",
						"label": "owner",
						"offset": 0,
						"slot": "0",
						"type": "t_address"
					},
					{
						"astId": 6,
						"contract": "ProjectBlockchain.sol:DonationTracking",
						"label": "donors",
						"offset": 0,
						"slot": "1",
						"type": "t_array(t_address)dyn_storage"
					},
					{
						"astId": 8,
						"contract": "ProjectBlockchain.sol:DonationTracking",
						"label": "selectedOrgIndex",
						"offset": 0,
						"slot": "2",
						"type": "t_uint256"
					},
					{
						"astId": 11,
						"contract": "ProjectBlockchain.sol:DonationTracking",
						"label": "charity_org",
						"offset": 0,
						"slot": "3",
						"type": "t_array(t_address_payable)dyn_storage"
					}
				],
				"types": {
					"t_address": {
						"encoding": "inplace",
						"label": "address",
						"numberOfBytes": "20"
					},
					"t_address_payable": {
						"encoding": "inplace",
						"label": "address payable",
						"numberOfBytes": "20"
					},
					"t_array(t_address)dyn_storage": {
						"base": "t_address",
						"encoding": "dynamic_array",
						"label": "address[]",
						"numberOfBytes": "32"
					},
					"t_array(t_address_payable)dyn_storage": {
						"base": "t_address_payable",
						"encoding": "dynamic_array",
						"label": "address payable[]",
						"numberOfBytes": "32"
					},
					"t_uint256": {
						"encoding": "inplace",
						"label": "uint256",
						"numberOfBytes": "32"
					}
				}
			},
			"userdoc": {
				"kind": "user",
				"methods": {},
				"version": 1
			}
		}
	}
}